{
  "contractName": "Date",
  "abi": [
    {
      "inputs": [],
      "stateMutability": "nonpayable",
      "type": "constructor"
    },
    {
      "anonymous": false,
      "inputs": [
        {
          "indexed": true,
          "internalType": "address",
          "name": "owner",
          "type": "address"
        },
        {
          "indexed": true,
          "internalType": "address",
          "name": "approved",
          "type": "address"
        },
        {
          "indexed": true,
          "internalType": "uint256",
          "name": "tokenId",
          "type": "uint256"
        }
      ],
      "name": "Approval",
      "type": "event"
    },
    {
      "anonymous": false,
      "inputs": [
        {
          "indexed": true,
          "internalType": "address",
          "name": "owner",
          "type": "address"
        },
        {
          "indexed": true,
          "internalType": "address",
          "name": "operator",
          "type": "address"
        },
        {
          "indexed": false,
          "internalType": "bool",
          "name": "approved",
          "type": "bool"
        }
      ],
      "name": "ApprovalForAll",
      "type": "event"
    },
    {
      "anonymous": false,
      "inputs": [
        {
          "indexed": true,
          "internalType": "address",
          "name": "previousOwner",
          "type": "address"
        },
        {
          "indexed": true,
          "internalType": "address",
          "name": "newOwner",
          "type": "address"
        }
      ],
      "name": "OwnershipTransferred",
      "type": "event"
    },
    {
      "anonymous": false,
      "inputs": [
        {
          "indexed": true,
          "internalType": "address",
          "name": "from",
          "type": "address"
        },
        {
          "indexed": true,
          "internalType": "address",
          "name": "to",
          "type": "address"
        },
        {
          "indexed": true,
          "internalType": "uint256",
          "name": "tokenId",
          "type": "uint256"
        }
      ],
      "name": "Transfer",
      "type": "event"
    },
    {
      "inputs": [
        {
          "internalType": "address",
          "name": "to",
          "type": "address"
        },
        {
          "internalType": "uint256",
          "name": "tokenId",
          "type": "uint256"
        }
      ],
      "name": "approve",
      "outputs": [],
      "stateMutability": "nonpayable",
      "type": "function"
    },
    {
      "inputs": [
        {
          "internalType": "address",
          "name": "owner",
          "type": "address"
        }
      ],
      "name": "balanceOf",
      "outputs": [
        {
          "internalType": "uint256",
          "name": "",
          "type": "uint256"
        }
      ],
      "stateMutability": "view",
      "type": "function"
    },
    {
      "inputs": [
        {
          "internalType": "uint256",
          "name": "tokenId",
          "type": "uint256"
        }
      ],
      "name": "getApproved",
      "outputs": [
        {
          "internalType": "address",
          "name": "",
          "type": "address"
        }
      ],
      "stateMutability": "view",
      "type": "function"
    },
    {
      "inputs": [
        {
          "internalType": "address",
          "name": "owner",
          "type": "address"
        },
        {
          "internalType": "address",
          "name": "operator",
          "type": "address"
        }
      ],
      "name": "isApprovedForAll",
      "outputs": [
        {
          "internalType": "bool",
          "name": "",
          "type": "bool"
        }
      ],
      "stateMutability": "view",
      "type": "function"
    },
    {
      "inputs": [],
      "name": "name",
      "outputs": [
        {
          "internalType": "string",
          "name": "",
          "type": "string"
        }
      ],
      "stateMutability": "view",
      "type": "function"
    },
    {
      "inputs": [],
      "name": "owner",
      "outputs": [
        {
          "internalType": "address",
          "name": "",
          "type": "address"
        }
      ],
      "stateMutability": "view",
      "type": "function"
    },
    {
      "inputs": [],
      "name": "renounceOwnership",
      "outputs": [],
      "stateMutability": "nonpayable",
      "type": "function"
    },
    {
      "inputs": [
        {
          "internalType": "address",
          "name": "from",
          "type": "address"
        },
        {
          "internalType": "address",
          "name": "to",
          "type": "address"
        },
        {
          "internalType": "uint256",
          "name": "tokenId",
          "type": "uint256"
        }
      ],
      "name": "safeTransferFrom",
      "outputs": [],
      "stateMutability": "nonpayable",
      "type": "function"
    },
    {
      "inputs": [
        {
          "internalType": "address",
          "name": "from",
          "type": "address"
        },
        {
          "internalType": "address",
          "name": "to",
          "type": "address"
        },
        {
          "internalType": "uint256",
          "name": "tokenId",
          "type": "uint256"
        },
        {
          "internalType": "bytes",
          "name": "_data",
          "type": "bytes"
        }
      ],
      "name": "safeTransferFrom",
      "outputs": [],
      "stateMutability": "nonpayable",
      "type": "function"
    },
    {
      "inputs": [
        {
          "internalType": "address",
          "name": "operator",
          "type": "address"
        },
        {
          "internalType": "bool",
          "name": "approved",
          "type": "bool"
        }
      ],
      "name": "setApprovalForAll",
      "outputs": [],
      "stateMutability": "nonpayable",
      "type": "function"
    },
    {
      "inputs": [
        {
          "internalType": "bytes4",
          "name": "interfaceId",
          "type": "bytes4"
        }
      ],
      "name": "supportsInterface",
      "outputs": [
        {
          "internalType": "bool",
          "name": "",
          "type": "bool"
        }
      ],
      "stateMutability": "view",
      "type": "function"
    },
    {
      "inputs": [],
      "name": "symbol",
      "outputs": [
        {
          "internalType": "string",
          "name": "",
          "type": "string"
        }
      ],
      "stateMutability": "view",
      "type": "function"
    },
    {
      "inputs": [
        {
          "internalType": "uint256",
          "name": "index",
          "type": "uint256"
        }
      ],
      "name": "tokenByIndex",
      "outputs": [
        {
          "internalType": "uint256",
          "name": "",
          "type": "uint256"
        }
      ],
      "stateMutability": "view",
      "type": "function"
    },
    {
      "inputs": [
        {
          "internalType": "address",
          "name": "owner",
          "type": "address"
        },
        {
          "internalType": "uint256",
          "name": "index",
          "type": "uint256"
        }
      ],
      "name": "tokenOfOwnerByIndex",
      "outputs": [
        {
          "internalType": "uint256",
          "name": "",
          "type": "uint256"
        }
      ],
      "stateMutability": "view",
      "type": "function"
    },
    {
      "inputs": [
        {
          "internalType": "uint256",
          "name": "tokenId",
          "type": "uint256"
        }
      ],
      "name": "tokenURI",
      "outputs": [
        {
          "internalType": "string",
          "name": "",
          "type": "string"
        }
      ],
      "stateMutability": "view",
      "type": "function"
    },
    {
      "inputs": [],
      "name": "totalSupply",
      "outputs": [
        {
          "internalType": "uint256",
          "name": "",
          "type": "uint256"
        }
      ],
      "stateMutability": "view",
      "type": "function"
    },
    {
      "inputs": [
        {
          "internalType": "address",
          "name": "from",
          "type": "address"
        },
        {
          "internalType": "address",
          "name": "to",
          "type": "address"
        },
        {
          "internalType": "uint256",
          "name": "tokenId",
          "type": "uint256"
        }
      ],
      "name": "transferFrom",
      "outputs": [],
      "stateMutability": "nonpayable",
      "type": "function"
    },
    {
      "inputs": [
        {
          "internalType": "address",
          "name": "newOwner",
          "type": "address"
        }
      ],
      "name": "transferOwnership",
      "outputs": [],
      "stateMutability": "nonpayable",
      "type": "function"
    },
    {
      "inputs": [
        {
          "internalType": "string",
          "name": "baseURI_t",
          "type": "string"
        }
      ],
      "name": "setBaseURI",
      "outputs": [],
      "stateMutability": "nonpayable",
      "type": "function"
    },
    {
      "inputs": [],
      "name": "baseURI",
      "outputs": [
        {
          "internalType": "string",
          "name": "",
          "type": "string"
        }
      ],
      "stateMutability": "view",
      "type": "function"
    },
    {
      "inputs": [
        {
          "internalType": "uint16",
          "name": "year",
          "type": "uint16"
        },
        {
          "internalType": "uint8",
          "name": "month",
          "type": "uint8"
        },
        {
          "internalType": "uint8",
          "name": "day",
          "type": "uint8"
        },
        {
          "internalType": "string",
          "name": "title",
          "type": "string"
        }
      ],
      "name": "claim",
      "outputs": [],
      "stateMutability": "payable",
      "type": "function"
    },
    {
      "inputs": [
        {
          "internalType": "uint16",
          "name": "year",
          "type": "uint16"
        },
        {
          "internalType": "uint8",
          "name": "month",
          "type": "uint8"
        },
        {
          "internalType": "uint8",
          "name": "day",
          "type": "uint8"
        }
      ],
      "name": "ownerOf",
      "outputs": [
        {
          "internalType": "address",
          "name": "",
          "type": "address"
        }
      ],
      "stateMutability": "view",
      "type": "function"
    },
    {
      "inputs": [
        {
          "internalType": "uint256",
          "name": "tokenId",
          "type": "uint256"
        }
      ],
      "name": "ownerOf",
      "outputs": [
        {
          "internalType": "address",
          "name": "",
          "type": "address"
        }
      ],
      "stateMutability": "view",
      "type": "function"
    },
    {
      "inputs": [
        {
          "internalType": "uint256",
          "name": "tokenId",
          "type": "uint256"
        }
      ],
      "name": "get",
      "outputs": [
        {
          "internalType": "uint16",
          "name": "year",
          "type": "uint16"
        },
        {
          "internalType": "uint8",
          "name": "month",
          "type": "uint8"
        },
        {
          "internalType": "uint8",
          "name": "day",
          "type": "uint8"
        },
        {
          "internalType": "uint8",
          "name": "color",
          "type": "uint8"
        },
        {
          "internalType": "string",
          "name": "title",
          "type": "string"
        }
      ],
      "stateMutability": "view",
      "type": "function"
    },
    {
      "inputs": [
        {
          "internalType": "uint16",
          "name": "year",
          "type": "uint16"
        },
        {
          "internalType": "uint8",
          "name": "month",
          "type": "uint8"
        },
        {
          "internalType": "uint8",
          "name": "day",
          "type": "uint8"
        }
      ],
      "name": "titleOf",
      "outputs": [
        {
          "internalType": "string",
          "name": "",
          "type": "string"
        }
      ],
      "stateMutability": "view",
      "type": "function"
    },
    {
      "inputs": [
        {
          "internalType": "uint256",
          "name": "tokenId",
          "type": "uint256"
        }
      ],
      "name": "titleOf",
      "outputs": [
        {
          "internalType": "string",
          "name": "",
          "type": "string"
        }
      ],
      "stateMutability": "view",
      "type": "function"
    },
    {
      "inputs": [
        {
          "internalType": "uint16",
          "name": "year",
          "type": "uint16"
        },
        {
          "internalType": "uint8",
          "name": "month",
          "type": "uint8"
        },
        {
          "internalType": "uint8",
          "name": "day",
          "type": "uint8"
        },
        {
          "internalType": "string",
          "name": "title",
          "type": "string"
        }
      ],
      "name": "changeTitleOf",
      "outputs": [],
      "stateMutability": "nonpayable",
      "type": "function"
    },
    {
      "inputs": [
        {
          "internalType": "uint256",
          "name": "tokenId",
          "type": "uint256"
        },
        {
          "internalType": "string",
          "name": "title",
          "type": "string"
        }
      ],
      "name": "changeTitleOf",
      "outputs": [],
      "stateMutability": "nonpayable",
      "type": "function"
    },
    {
      "inputs": [
        {
          "internalType": "uint16",
          "name": "year",
          "type": "uint16"
        }
      ],
      "name": "isLeapYear",
      "outputs": [
        {
          "internalType": "bool",
          "name": "",
          "type": "bool"
        }
      ],
      "stateMutability": "pure",
      "type": "function"
    },
    {
      "inputs": [
        {
          "internalType": "uint8",
          "name": "month",
          "type": "uint8"
        },
        {
          "internalType": "uint16",
          "name": "year",
          "type": "uint16"
        }
      ],
      "name": "numDaysInMonth",
      "outputs": [
        {
          "internalType": "uint8",
          "name": "",
          "type": "uint8"
        }
      ],
      "stateMutability": "pure",
      "type": "function"
    },
    {
      "inputs": [
        {
          "internalType": "uint256",
          "name": "timestamp",
          "type": "uint256"
        }
      ],
      "name": "timestampToDate",
      "outputs": [
        {
          "internalType": "uint16",
          "name": "year",
          "type": "uint16"
        },
        {
          "internalType": "uint8",
          "name": "month",
          "type": "uint8"
        },
        {
          "internalType": "uint8",
          "name": "day",
          "type": "uint8"
        }
      ],
      "stateMutability": "pure",
      "type": "function"
    }
  ],
  "bytecode": "0x60806040523480156200001157600080fd5b506040518060400160405280600481526020017f44617465000000000000000000000000000000000000000000000000000000008152506040518060400160405280600481526020017f44415445000000000000000000000000000000000000000000000000000000008152506000620000906200049460201b60201c565b600080546001600160a01b0319166001600160a01b0383169081178255604051929350917f8be0079c531659141344cd1fd0a4f28419497f9722a3daafe3b4186f6b6457e0908290a350620001057f01ffc9a70000000000000000000000000000000000000000000000000000000062000498565b81516200011a90600790602085019062001232565b5080516200013090600890602084019062001232565b506200015c7f80ac58cd0000000000000000000000000000000000000000000000000000000062000498565b620001877f5b5e139f0000000000000000000000000000000000000000000000000000000062000498565b620001b27f780e9d630000000000000000000000000000000000000000000000000000000062000498565b5050620001d8604051806060016040528060268152602001620045f1602691396200056a565b62000225600180600160046040518060400160405280600681526020017f4f524947494e00000000000000000000000000000000000000000000000000008152506200061660201b60201c565b600080806200023442620006fb565b9250925092506200028583838360046040518060400160405280601081526020017f4461746520546f6b656e205374617274000000000000000000000000000000008152506200061660201b60201c565b620002d46107df6007601e60066040518060400160405280600b81526020017f4554482047454e455349530000000000000000000000000000000000000000008152506200061660201b60201c565b620003226107d060018060056040518060400160405280600f81526020017f546865206e65772063656e7475727900000000000000000000000000000000008152506200061660201b60201c565b620003716107d96001600360016040518060400160405280601181526020017f426974636f696e2077617320626f726e2e0000000000000000000000000000008152506200061660201b60201c565b620003c06107d16009600b60026040518060400160405280600c81526020017f4e6576657220666f7267657400000000000000000000000000000000000000008152506200061660201b60201c565b6200040f6107b16007601460036040518060400160405280601681526020017f4f6e6520736d616c6c207374657020666f72206d616e000000000000000000008152506200061660201b60201c565b6200045e6107b36006601c60076040518060400160405280600f81526020017f456c6f6e277320426972746864617900000000000000000000000000000000008152506200061660201b60201c565b6200048b6107db600c60056000604051806060016040528060258152602001620045cc6025913962000616565b505050620012de565b3390565b7fffffffff0000000000000000000000000000000000000000000000000000000080821614156200052a57604080517f08c379a000000000000000000000000000000000000000000000000000000000815260206004820152601c60248201527f4552433136353a20696e76616c696420696e7465726661636520696400000000604482015290519081900360640190fd5b7fffffffff00000000000000000000000000000000000000000000000000000000166000908152600160208190526040909120805460ff19169091179055565b6200057462000494565b6001600160a01b031662000587620007b3565b6001600160a01b031614620005fd57604080517f08c379a000000000000000000000000000000000000000000000000000000000815260206004820181905260248201527f4f776e61626c653a2063616c6c6572206973206e6f7420746865206f776e6572604482015290519081900360640190fd5b80516200061290600c90602084019062001232565b5050565b600062000625868686620007c2565b6040805160a08101825261ffff808a16825260ff808a1660208085019182528a83168587019081528a841660608701908152608087018b815260008a8152600b8552989098208751815495519351925187166401000000000260ff60201b1993881663010000000263ff0000001995909816620100000262ff0000199290991661ffff199097169690961716969096179190911693909317929092161782559251805194955091939092620006e292600185019291019062001232565b50620006f39150339050826200081d565b505050505050565b60008080620afa6c620151808504018162023ab18204905062023ab181028203600061016d62023ab083046105b484048403618eac850401030490506064810461016d8202600483040103820360006099600260058402010490506005600260998302010482036001019650600a81106200077a57600981036200077f565b806003015b975060028860ff1611156200079657600062000799565b60015b60ff16856101900284010198505050505050509193909250565b6000546001600160a01b031690565b60008160ff16600111158015620007ea5750620007e083856200083f565b60ff168260ff1611155b620007f457600080fd5b60018260ff1660018560ff1603601f0260018761ffff16036101740201010390505b9392505050565b62000612828260405180602001604052806000815250620009e560201b60201c565b60008260ff166001111580156200085a5750600c8360ff1611155b620008c657604080517f08c379a000000000000000000000000000000000000000000000000000000000815260206004820152601e60248201527f6d6f6e7468206d757374206265206265747765656e203120616e642031320000604482015290519081900360640190fd5b8161ffff16600111156200093b57604080517f08c379a000000000000000000000000000000000000000000000000000000000815260206004820152601e60248201527f79656172206d75737420626520626967676572206f7220657175616c20310000604482015290519081900360640190fd5b8260ff16600114806200095157508260ff166003145b806200096057508260ff166005145b806200096f57508260ff166007145b806200097e57508260ff166008145b806200098d57508260ff16600a145b806200099c57508260ff16600c145b15620009ab5750601f620009df565b8260ff1660021415620009db57620009c38262000a5c565b620009d057601c620009d3565b601d5b9050620009df565b50601e5b92915050565b620009f1838362000b08565b62000a00600084848462000c90565b62000a57576040517f08c379a0000000000000000000000000000000000000000000000000000000008152600401808060200182810382526032815260200180620045746032913960400191505060405180910390fd5b505050565b60008161ffff166001111562000ad357604080517f08c379a000000000000000000000000000000000000000000000000000000000815260206004820152601e60248201527f79656172206d75737420626520626967676572206f7220657175616c20310000604482015290519081900360640190fd5b6003821615801562000af05750606461ffff83160661ffff166000145b8015620009df57505061019061ffff91821606161590565b6001600160a01b03821662000b7e57604080517f08c379a000000000000000000000000000000000000000000000000000000000815260206004820181905260248201527f4552433732313a206d696e7420746f20746865207a65726f2061646472657373604482015290519081900360640190fd5b62000b898162000e68565b1562000bf657604080517f08c379a000000000000000000000000000000000000000000000000000000000815260206004820152601c60248201527f4552433732313a20746f6b656e20616c7265616479206d696e74656400000000604482015290519081900360640190fd5b62000c046000838362000a57565b6001600160a01b038216600090815260026020908152604090912062000c359183906200208f62000e85821b17901c565b5062000c538183600362000e9360201b6200209b179092919060201c565b5060405181906001600160a01b038416906000907fddf252ad1be2c89b69c2b068fc378daa952ba7f163c4a11628f55a4df523b3ef908290a45050565b600062000cb1846001600160a01b031662000eab60201b620020b11760201c565b62000cbf5750600162000e60565b600062000dfb7f150b7a020000000000000000000000000000000000000000000000000000000062000cf062000494565b88878760405160240180856001600160a01b03168152602001846001600160a01b0316815260200183815260200180602001828103825283818151815260200191508051906020019080838360005b8381101562000d5957818101518382015260200162000d3f565b50505050905090810190601f16801562000d875780820380516001836020036101000a031916815260200191505b5095505050505050604051602081830303815290604052906001600160e01b0319166020820180516001600160e01b0383818316178352505050506040518060600160405280603281526020016200457460329139876001600160a01b031662000eb160201b620020b7179092919060201c565b9050600081806020019051602081101562000e1557600080fd5b50517fffffffff00000000000000000000000000000000000000000000000000000000167f150b7a020000000000000000000000000000000000000000000000000000000014925050505b949350505050565b6000620009df82600362000ec260201b620020c61790919060201c565b600062000816838362000ed0565b600062000e6084846001600160a01b03851662000f1f565b3b151590565b606062000e60848460008562000fba565b600062000816838362001156565b600062000ede838362001156565b62000f1657508154600181810184556000848152602080822090930184905584548482528286019093526040902091909155620009df565b506000620009df565b60008281526001840160205260408120548062000f8657505060408051808201825283815260208082018481528654600181810189556000898152848120955160029093029095019182559151908201558654868452818801909252929091205562000816565b8285600001600183038154811062000f9a57fe5b906000526020600020906002020160010181905550600091505062000816565b6060303183111562001018576040517f08c379a0000000000000000000000000000000000000000000000000000000008152600401808060200182810382526026815260200180620045a66026913960400191505060405180910390fd5b620010238562000eab565b6200108f57604080517f08c379a000000000000000000000000000000000000000000000000000000000815260206004820152601d60248201527f416464726573733a2063616c6c20746f206e6f6e2d636f6e7472616374000000604482015290519081900360640190fd5b600080866001600160a01b031685876040518082805190602001908083835b60208310620010cf5780518252601f199092019160209182019101620010ae565b6001836020036101000a03801982511681845116808217855250505050505090500191505060006040518083038185875af1925050503d806000811462001133576040519150601f19603f3d011682016040523d82523d6000602084013e62001138565b606091505b5090925090506200114b8282866200116e565b979650505050505050565b60009081526001919091016020526040902054151590565b606083156200117f57508162000816565b825115620011905782518084602001fd5b816040517f08c379a00000000000000000000000000000000000000000000000000000000081526004018080602001828103825283818151815260200191508051906020019080838360005b83811015620011f6578181015183820152602001620011dc565b50505050905090810190601f168015620012245780820380516001836020036101000a031916815260200191505b509250505060405180910390fd5b828054600181600116156101000203166002900490600052602060002090601f0160209004810192826200126a5760008555620012b5565b82601f106200128557805160ff1916838001178555620012b5565b82800160010185558215620012b5579182015b82811115620012b557825182559160200191906001019062001298565b50620012c3929150620012c7565b5090565b5b80821115620012c35760008155600101620012c8565b61328680620012ee6000396000f3fe6080604052600436106101d85760003560e01c80636c0360eb11610102578063a8c2433011610095578063daf7c16611610064578063daf7c16614610aaf578063de5101af14610ad9578063e985e9c514610b2a578063f2fde38b14610b65576101d8565b8063a8c24330146108bd578063b3a083fa146108fc578063b88d4fde146109b4578063c87b56dd14610a85576101d8565b80639507d39a116100d15780639507d39a1461077457806395d89b411461083f578063a22cb46514610854578063a6f0e5771461088f576101d8565b80636c0360eb1461070257806370a0823114610717578063715018a61461074a5780638da5cb5b1461075f576101d8565b80632f745c591161017a5780635333f08f116101495780635333f08f1461054e57806355f804b31461059b5780635b6f29b71461064c5780636352211e146106d8576101d8565b80632f745c591461046957806339eac6ab146104a257806342842e0e146104e15780634f6ccce714610524576101d8565b8063095ea7b3116101b6578063095ea7b3146102f557806318160ddd14610330578063232f8ecc1461035757806323b872dd14610426576101d8565b806301ffc9a7146101dd57806306fdde0314610225578063081812fc146102af575b600080fd5b3480156101e957600080fd5b506102116004803603602081101561020057600080fd5b50356001600160e01b031916610b98565b604080519115158252519081900360200190f35b34801561023157600080fd5b5061023a610bbb565b6040805160208082528351818301528351919283929083019185019080838360005b8381101561027457818101518382015260200161025c565b50505050905090810190601f1680156102a15780820380516001836020036101000a031916815260200191505b509250505060405180910390f35b3480156102bb57600080fd5b506102d9600480360360208110156102d257600080fd5b5035610c51565b604080516001600160a01b039092168252519081900360200190f35b34801561030157600080fd5b5061032e6004803603604081101561031857600080fd5b506001600160a01b038135169060200135610cb3565b005b34801561033c57600080fd5b50610345610d8e565b60408051918252519081900360200190f35b34801561036357600080fd5b5061032e6004803603608081101561037a57600080fd5b61ffff8235169160ff602082013581169260408301359091169190810190608081016060820135600160201b8111156103b257600080fd5b8201836020820111156103c457600080fd5b803590602001918460018302840111600160201b831117156103e557600080fd5b91908080601f016020809104026020016040519081016040528093929190818152602001838380828437600092019190915250929550610d9f945050505050565b34801561043257600080fd5b5061032e6004803603606081101561044957600080fd5b506001600160a01b03813581169160208101359091169060400135610e10565b34801561047557600080fd5b506103456004803603604081101561048c57600080fd5b506001600160a01b038135169060200135610e67565b3480156104ae57600080fd5b506102d9600480360360608110156104c557600080fd5b5061ffff8135169060ff60208201358116916040013516610e92565b3480156104ed57600080fd5b5061032e6004803603606081101561050457600080fd5b506001600160a01b03813581169160208101359091169060400135610eb1565b34801561053057600080fd5b506103456004803603602081101561054757600080fd5b5035610ecc565b34801561055a57600080fd5b506105856004803603604081101561057157600080fd5b50803560ff16906020013561ffff16610ee2565b6040805160ff9092168252519081900360200190f35b3480156105a757600080fd5b5061032e600480360360208110156105be57600080fd5b810190602081018135600160201b8111156105d857600080fd5b8201836020820111156105ea57600080fd5b803590602001918460018302840111600160201b8311171561060b57600080fd5b91908080601f016020809104026020016040519081016040528093929190818152602001838380828437600092019190915250929550611041945050505050565b61032e6004803603608081101561066257600080fd5b61ffff8235169160ff602082013581169260408301359091169190810190608081016060820135600160201b81111561069a57600080fd5b8201836020820111156106ac57600080fd5b803590602001918460018302840111600160201b831117156106cd57600080fd5b5090925090506110cc565b3480156106e457600080fd5b506102d9600480360360208110156106fb57600080fd5b503561134a565b34801561070e57600080fd5b5061023a611372565b34801561072357600080fd5b506103456004803603602081101561073a57600080fd5b50356001600160a01b03166113d3565b34801561075657600080fd5b5061032e61143b565b34801561076b57600080fd5b506102d96114f9565b34801561078057600080fd5b5061079e6004803603602081101561079757600080fd5b5035611508565b604051808661ffff1681526020018560ff1681526020018460ff1681526020018360ff16815260200180602001828103825283818151815260200191508051906020019080838360005b838110156108005781810151838201526020016107e8565b50505050905090810190601f16801561082d5780820380516001836020036101000a031916815260200191505b50965050505050505060405180910390f35b34801561084b57600080fd5b5061023a61166e565b34801561086057600080fd5b5061032e6004803603604081101561087757600080fd5b506001600160a01b03813516906020013515156116cf565b34801561089b57600080fd5b50610211600480360360208110156108b257600080fd5b503561ffff166117d4565b3480156108c957600080fd5b5061023a600480360360608110156108e057600080fd5b5061ffff8135169060ff60208201358116916040013516611863565b34801561090857600080fd5b5061032e6004803603604081101561091f57600080fd5b81359190810190604081016020820135600160201b81111561094057600080fd5b82018360208201111561095257600080fd5b803590602001918460018302840111600160201b8311171561097357600080fd5b91908080601f0160208091040260200160405190810160405280939291908181526020018383808284376000920191909152509295506119be945050505050565b3480156109c057600080fd5b5061032e600480360360808110156109d757600080fd5b6001600160a01b03823581169260208101359091169160408201359190810190608081016060820135600160201b811115610a1157600080fd5b820183602082011115610a2357600080fd5b803590602001918460018302840111600160201b83111715610a4457600080fd5b91908080601f016020809104026020016040519081016040528093929190818152602001838380828437600092019190915250929550611a7f945050505050565b348015610a9157600080fd5b5061023a60048036036020811015610aa857600080fd5b5035611ad7565b348015610abb57600080fd5b5061023a60048036036020811015610ad257600080fd5b5035611d58565b348015610ae557600080fd5b50610b0360048036036020811015610afc57600080fd5b5035611e99565b6040805161ffff909416845260ff9283166020850152911682820152519081900360600190f35b348015610b3657600080fd5b5061021160048036036040811015610b4d57600080fd5b506001600160a01b0381358116916020013516611f4d565b348015610b7157600080fd5b5061032e60048036036020811015610b8857600080fd5b50356001600160a01b0316611f7b565b6001600160e01b0319811660009081526001602052604090205460ff165b919050565b60078054604080516020601f6002600019610100600188161502019095169490940493840181900481028201810190925282815260609390929091830182828015610c475780601f10610c1c57610100808354040283529160200191610c47565b820191906000526020600020905b815481529060010190602001808311610c2a57829003601f168201915b5050505050905090565b6000610c5c826120d2565b610c975760405162461bcd60e51b815260040180806020018281038252602c815260200180613154602c913960400191505060405180910390fd5b506000908152600560205260409020546001600160a01b031690565b6000610cbe8261134a565b9050806001600160a01b0316836001600160a01b03161415610d115760405162461bcd60e51b81526004018080602001828103825260218152602001806131d86021913960400191505060405180910390fd5b806001600160a01b0316610d236120df565b6001600160a01b03161480610d445750610d4481610d3f6120df565b611f4d565b610d7f5760405162461bcd60e51b81526004018080602001828103825260388152602001806130a76038913960400191505060405180910390fd5b610d8983836120e3565b505050565b6000610d9a6003612151565b905090565b610db2610dad85858561215c565b6120d2565b610df6576040805162461bcd60e51b815260206004820152601060248201526f1d1bdad95b881b9bdd081b5a5b9d195960821b604482015290519081900360640190fd5b610e0a610e0485858561215c565b826119be565b50505050565b610e21610e1b6120df565b826121b2565b610e5c5760405162461bcd60e51b81526004018080602001828103825260318152602001806131f96031913960400191505060405180910390fd5b610d89838383612256565b6001600160a01b0382166000908152600260205260408120610e8990836123a2565b90505b92915050565b6000610ea7610ea285858561215c565b61134a565b90505b9392505050565b610d8983838360405180602001604052806000815250611a7f565b600080610eda6003846123ae565b509392505050565b60008260ff16600111158015610efc5750600c8360ff1611155b610f4d576040805162461bcd60e51b815260206004820152601e60248201527f6d6f6e7468206d757374206265206265747765656e203120616e642031320000604482015290519081900360640190fd5b8161ffff1660011115610fa7576040805162461bcd60e51b815260206004820152601e60248201527f79656172206d75737420626520626967676572206f7220657175616c20310000604482015290519081900360640190fd5b8260ff1660011480610fbc57508260ff166003145b80610fca57508260ff166005145b80610fd857508260ff166007145b80610fe657508260ff166008145b80610ff457508260ff16600a145b8061100257508260ff16600c145b1561100f5750601f610e8c565b8260ff166002141561103957611024826117d4565b61102f57601c611032565b601d5b9050610e8c565b50601e610e8c565b6110496120df565b6001600160a01b031661105a6114f9565b6001600160a01b0316146110b5576040805162461bcd60e51b815260206004820181905260248201527f4f776e61626c653a2063616c6c6572206973206e6f7420746865206f776e6572604482015290519081900360640190fd5b80516110c890600c906020840190612ee5565b5050565b34662386f26fc1000014611127576040805162461bcd60e51b815260206004820152601f60248201527f636c61696d696e672061206461746520636f7374732031302066696e6e657900604482015290519081900360640190fd5b600080600061113542611e99565b9250925092508261ffff168861ffff16118061116857508261ffff168861ffff1614801561116857508160ff168760ff16115b8061119b57508261ffff168861ffff1614801561118a57508160ff168760ff16145b801561119b57508060ff168660ff16115b156111d75760405162461bcd60e51b815260040180806020018281038252602781526020018061322a6027913960400191505060405180910390fd5b600080620f42406112208b8b8b8b8b8080601f0160208091040260200160405190810160405280939291908181526020018383808284376000920191909152506123ca92505050565b8161122757fe5b0690506103e881101561123d57600791506112b8565b61177081101561125057600691506112b8565b613e8081101561126357600591506112b8565b620101d081101561127757600491506112b8565b6202887081101561128b57600391506112b8565b620595b081101561129f57600291506112b8565b620a29908110156112b357600191506112b8565b600091505b6112fb8a8a8a858b8b8080601f01602080910402602001604051908101604052809392919081815260200183838082843760009201919091525061249192505050565b6113036114f9565b6040516001600160a01b039190911690600090662386f26fc100009082818181858883f1935050505015801561133d573d6000803e3d6000fd5b5050505050505050505050565b6000610e8c82604051806060016040528060298152602001613109602991396003919061256f565b600c8054604080516020601f6002600019610100600188161502019095169490940493840181900481028201810190925282815260609390929091830182828015610c475780601f10610c1c57610100808354040283529160200191610c47565b60006001600160a01b03821661141a5760405162461bcd60e51b815260040180806020018281038252602a8152602001806130df602a913960400191505060405180910390fd5b6001600160a01b0382166000908152600260205260409020610e8c90612151565b6114436120df565b6001600160a01b03166114546114f9565b6001600160a01b0316146114af576040805162461bcd60e51b815260206004820181905260248201527f4f776e61626c653a2063616c6c6572206973206e6f7420746865206f776e6572604482015290519081900360640190fd5b600080546040516001600160a01b03909116907f8be0079c531659141344cd1fd0a4f28419497f9722a3daafe3b4186f6b6457e0908390a3600080546001600160a01b0319169055565b6000546001600160a01b031690565b6000806000806060611519866120d2565b61155d576040805162461bcd60e51b815260206004820152601060248201526f1d1bdad95b881b9bdd081b5a5b9d195960821b604482015290519081900360640190fd5b6000868152600b60209081526040808320815160a081018352815461ffff8116825260ff62010000820481168387015263010000008204811683860152600160201b909104166060820152600180830180548551601f60026000199584161561010002959095019092169390930490810187900487028301870190955284825291949293608086019391929183018282801561163a5780601f1061160f5761010080835404028352916020019161163a565b820191906000526020600020905b81548152906001019060200180831161161d57829003601f168201915b5050509190925250508151602083015160408401516060850151608090950151929c919b5099509297509550909350505050565b60088054604080516020601f6002600019610100600188161502019095169490940493840181900481028201810190925282815260609390929091830182828015610c475780601f10610c1c57610100808354040283529160200191610c47565b6116d76120df565b6001600160a01b0316826001600160a01b0316141561173d576040805162461bcd60e51b815260206004820152601960248201527f4552433732313a20617070726f766520746f2063616c6c657200000000000000604482015290519081900360640190fd5b806006600061174a6120df565b6001600160a01b03908116825260208083019390935260409182016000908120918716808252919093529120805460ff19169215159290921790915561178e6120df565b6001600160a01b03167f17307eab39ab6107e8899845ad3d59bd9653f200f220920489ca2b5937696c318360405180821515815260200191505060405180910390a35050565b60008161ffff1660011115611830576040805162461bcd60e51b815260206004820152601e60248201527f79656172206d75737420626520626967676572206f7220657175616c20310000604482015290519081900360640190fd5b6003821615801561184c5750606461ffff83160661ffff166000145b8015610e8c57505061019061ffff91821606161590565b6060611873610dad85858561215c565b6118b7576040805162461bcd60e51b815260206004820152601060248201526f1d1bdad95b881b9bdd081b5a5b9d195960821b604482015290519081900360640190fd5b6000600b60006118c887878761215c565b81526020808201929092526040908101600020815160a081018352815461ffff8116825260ff62010000820481168387015263010000008204811683860152600160201b909104166060820152600180830180548551601f6002600019958416156101000295909501909216939093049081018790048702830187019095528482529194929360808601939192918301828280156119a75780601f1061197c576101008083540402835291602001916119a7565b820191906000526020600020905b81548152906001019060200180831161198a57829003601f168201915b505050919092525050506080015195945050505050565b6119c7826120d2565b611a0b576040805162461bcd60e51b815260206004820152601060248201526f1d1bdad95b881b9bdd081b5a5b9d195960821b604482015290519081900360640190fd5b33611a158361134a565b6001600160a01b031614611a5a5760405162461bcd60e51b8152600401808060200182810382526030815260200180612fa96030913960400191505060405180910390fd5b6000828152600b602090815260409091208251610d8992600190920191840190612ee5565b611a90611a8a6120df565b836121b2565b611acb5760405162461bcd60e51b81526004018080602001828103825260318152602001806131f96031913960400191505060405180910390fd5b610e0a8484848461257c565b6060611ae2826120d2565b611b1d5760405162461bcd60e51b815260040180806020018281038252602f8152602001806131a9602f913960400191505060405180910390fd5b60008281526009602090815260408083208054825160026001831615610100026000190190921691909104601f810185900485028201850190935282815292909190830182828015611bb05780601f10611b8557610100808354040283529160200191611bb0565b820191906000526020600020905b815481529060010190602001808311611b9357829003601f168201915b505050505090506000611bc1611372565b9050805160001415611bd557509050610bb6565b815115611c965780826040516020018083805190602001908083835b60208310611c105780518252601f199092019160209182019101611bf1565b51815160209384036101000a600019018019909216911617905285519190930192850191508083835b60208310611c585780518252601f199092019160209182019101611c39565b6001836020036101000a0380198251168184511680821785525050505050509050019250505060405160208183030381529060405292505050610bb6565b80611ca0856125ce565b6040516020018083805190602001908083835b60208310611cd25780518252601f199092019160209182019101611cb3565b51815160209384036101000a600019018019909216911617905285519190930192850191508083835b60208310611d1a5780518252601f199092019160209182019101611cfb565b6001836020036101000a0380198251168184511680821785525050505050509050019250505060405160208183030381529060405292505050919050565b6060611d63826120d2565b611da7576040805162461bcd60e51b815260206004820152601060248201526f1d1bdad95b881b9bdd081b5a5b9d195960821b604482015290519081900360640190fd5b6000828152600b60209081526040808320815160a081018352815461ffff8116825260ff62010000820481168387015263010000008204811683860152600160201b909104166060820152600180830180548551601f600260001995841615610100029590950190921693909304908101879004870283018701909552848252919492936080860193919291830182828015611e845780601f10611e5957610100808354040283529160200191611e84565b820191906000526020600020905b815481529060010190602001808311611e6757829003601f168201915b50505091909252505050608001519392505050565b60008080620afa6c620151808504018162023ab18204905062023ab181028203600061016d62023ab083046105b484048403618eac850401030490506064810461016d8202600483040103820360006099600260058402010490506005600260998302010482036001019650600a8110611f165760098103611f1b565b806003015b975060028860ff161115611f30576000611f33565b60015b60ff16856101900284010198505050505050509193909250565b6001600160a01b03918216600090815260066020908152604080832093909416825291909152205460ff1690565b611f836120df565b6001600160a01b0316611f946114f9565b6001600160a01b031614611fef576040805162461bcd60e51b815260206004820181905260248201527f4f776e61626c653a2063616c6c6572206973206e6f7420746865206f776e6572604482015290519081900360640190fd5b6001600160a01b0381166120345760405162461bcd60e51b815260040180806020018281038252602681526020018061300b6026913960400191505060405180910390fd5b600080546040516001600160a01b03808516939216917f8be0079c531659141344cd1fd0a4f28419497f9722a3daafe3b4186f6b6457e091a3600080546001600160a01b0319166001600160a01b0392909216919091179055565b6000610e8983836126a9565b6000610ea784846001600160a01b0385166126f3565b3b151590565b6060610ea7848460008561278a565b6000610e8983836128e6565b6000610e8c6003836120c6565b3390565b600081815260056020526040902080546001600160a01b0319166001600160a01b03841690811790915581906121188261134a565b6001600160a01b03167f8c5be1e5ebec7d5bd14f71427d1e84f3dd0314c0f7b2291e5b200ac8c7c3b92560405160405180910390a45050565b6000610e8c826128fe565b60008160ff1660011115801561218157506121778385610ee2565b60ff168260ff1611155b61218a57600080fd5b60018260ff1660018560ff1603601f0260018761ffff16036101740201010390509392505050565b60006121bd826120d2565b6121f85760405162461bcd60e51b815260040180806020018281038252602c81526020018061307b602c913960400191505060405180910390fd5b60006122038361134a565b9050806001600160a01b0316846001600160a01b0316148061223e5750836001600160a01b031661223384610c51565b6001600160a01b0316145b8061224e575061224e8185611f4d565b949350505050565b826001600160a01b03166122698261134a565b6001600160a01b0316146122ae5760405162461bcd60e51b81526004018080602001828103825260298152602001806131806029913960400191505060405180910390fd5b6001600160a01b0382166122f35760405162461bcd60e51b81526004018080602001828103825260248152602001806130316024913960400191505060405180910390fd5b6122fe838383610d89565b6123096000826120e3565b6001600160a01b038316600090815260026020526040902061232b9082612902565b506001600160a01b038216600090815260026020526040902061234e908261208f565b5061235b6003828461209b565b5080826001600160a01b0316846001600160a01b03167fddf252ad1be2c89b69c2b068fc378daa952ba7f163c4a11628f55a4df523b3ef60405160405180910390a4505050565b6000610e89838361290e565b60008080806123bd8686612972565b9097909650945050505050565b6000424486868686604051602001808781526020018681526020018561ffff1681526020018460ff1681526020018360ff16815260200180602001828103825283818151815260200191508051906020019080838360005b8381101561243a578181015183820152602001612422565b50505050905090810190601f1680156124675780820380516001836020036101000a031916815260200191505b5060408051808303601f1901815291905280516020909101209d9c50505050505050505050505050565b600061249e86868661215c565b6040805160a08101825261ffff808a16825260ff808a1660208085019182528a83168587019081528a841660608701908152608087018b815260008a8152600b855298909820875181549551935192518716600160201b0264ff000000001993881663010000000263ff0000001995909816620100000262ff0000199290991661ffff199097169690961716969096179190911693909317929092161782559251805194955091939092612559926001850192910190612ee5565b5090505061256733826129ed565b505050505050565b6000610ea7848484612a07565b612587848484612256565b61259384848484612ad1565b610e0a5760405162461bcd60e51b8152600401808060200182810382526032815260200180612fd96032913960400191505060405180910390fd5b6060816125f357506040805180820190915260018152600360fc1b6020820152610bb6565b8160005b811561260b57600101600a820491506125f7565b60008167ffffffffffffffff8111801561262457600080fd5b506040519080825280601f01601f19166020018201604052801561264f576020820181803683370190505b50859350905060001982015b83156126a057600a840660300160f81b8282806001900393508151811061267e57fe5b60200101906001600160f81b031916908160001a905350600a8404935061265b565b50949350505050565b60006126b583836128e6565b6126eb57508154600181810184556000848152602080822090930184905584548482528286019093526040902091909155610e8c565b506000610e8c565b600082815260018401602052604081205480612758575050604080518082018252838152602080820184815286546001818101895560008981528481209551600290930290950191825591519082015586548684528188019092529290912055610eaa565b8285600001600183038154811061276b57fe5b9060005260206000209060020201600101819055506000915050610eaa565b606030318311156127cc5760405162461bcd60e51b81526004018080602001828103825260268152602001806130556026913960400191505060405180910390fd5b6127d5856120b1565b612826576040805162461bcd60e51b815260206004820152601d60248201527f416464726573733a2063616c6c20746f206e6f6e2d636f6e7472616374000000604482015290519081900360640190fd5b600080866001600160a01b031685876040518082805190602001908083835b602083106128645780518252601f199092019160209182019101612845565b6001836020036101000a03801982511681845116808217855250505050505090500191505060006040518083038185875af1925050503d80600081146128c6576040519150601f19603f3d011682016040523d82523d6000602084013e6128cb565b606091505b50915091506128db828286612c39565b979650505050505050565b60009081526001919091016020526040902054151590565b5490565b6000610e898383612c9f565b815460009082106129505760405162461bcd60e51b8152600401808060200182810382526022815260200180612f876022913960400191505060405180910390fd5b82600001828154811061295f57fe5b9060005260206000200154905092915050565b8154600090819083106129b65760405162461bcd60e51b81526004018080602001828103825260228152602001806131326022913960400191505060405180910390fd5b60008460000184815481106129c757fe5b906000526020600020906002020190508060000154816001015492509250509250929050565b6110c8828260405180602001604052806000815250612d65565b60008281526001840160205260408120548281612aa25760405162461bcd60e51b81526004018080602001828103825283818151815260200191508051906020019080838360005b83811015612a67578181015183820152602001612a4f565b50505050905090810190601f168015612a945780820380516001836020036101000a031916815260200191505b509250505060405180910390fd5b50846000016001820381548110612ab557fe5b9060005260206000209060020201600101549150509392505050565b6000612ae5846001600160a01b03166120b1565b612af15750600161224e565b6000612bff630a85bd0160e11b612b066120df565b88878760405160240180856001600160a01b03168152602001846001600160a01b0316815260200183815260200180602001828103825283818151815260200191508051906020019080838360005b83811015612b6d578181015183820152602001612b55565b50505050905090810190601f168015612b9a5780820380516001836020036101000a031916815260200191505b5095505050505050604051602081830303815290604052906001600160e01b0319166020820180516001600160e01b038381831617835250505050604051806060016040528060328152602001612fd9603291396001600160a01b03881691906120b7565b90506000818060200190516020811015612c1857600080fd5b50516001600160e01b031916630a85bd0160e11b1492505050949350505050565b60608315612c48575081610eaa565b825115612c585782518084602001fd5b60405162461bcd60e51b8152602060048201818152845160248401528451859391928392604401919085019080838360008315612a67578181015183820152602001612a4f565b60008181526001830160205260408120548015612d5b5783546000198083019190810190600090879083908110612cd257fe5b9060005260206000200154905080876000018481548110612cef57fe5b600091825260208083209091019290925582815260018981019092526040902090840190558654879080612d1f57fe5b60019003818190600052602060002001600090559055866001016000878152602001908152602001600020600090556001945050505050610e8c565b6000915050610e8c565b612d6f8383612db7565b612d7c6000848484612ad1565b610d895760405162461bcd60e51b8152600401808060200182810382526032815260200180612fd96032913960400191505060405180910390fd5b6001600160a01b038216612e12576040805162461bcd60e51b815260206004820181905260248201527f4552433732313a206d696e7420746f20746865207a65726f2061646472657373604482015290519081900360640190fd5b612e1b816120d2565b15612e6d576040805162461bcd60e51b815260206004820152601c60248201527f4552433732313a20746f6b656e20616c7265616479206d696e74656400000000604482015290519081900360640190fd5b612e7960008383610d89565b6001600160a01b0382166000908152600260205260409020612e9b908261208f565b50612ea86003828461209b565b5060405181906001600160a01b038416906000907fddf252ad1be2c89b69c2b068fc378daa952ba7f163c4a11628f55a4df523b3ef908290a45050565b828054600181600116156101000203166002900490600052602060002090601f016020900481019282612f1b5760008555612f61565b82601f10612f3457805160ff1916838001178555612f61565b82800160010185558215612f61579182015b82811115612f61578251825591602001919060010190612f46565b50612f6d929150612f71565b5090565b5b80821115612f6d5760008155600101612f7256fe456e756d657261626c655365743a20696e646578206f7574206f6620626f756e64736f6e6c7920746865206f776e6572206f66207468697320646174652063616e206368616e676520697473207469746c654552433732313a207472616e7366657220746f206e6f6e20455243373231526563656976657220696d706c656d656e7465724f776e61626c653a206e6577206f776e657220697320746865207a65726f20616464726573734552433732313a207472616e7366657220746f20746865207a65726f2061646472657373416464726573733a20696e73756666696369656e742062616c616e636520666f722063616c6c4552433732313a206f70657261746f7220717565727920666f72206e6f6e6578697374656e7420746f6b656e4552433732313a20617070726f76652063616c6c6572206973206e6f74206f776e6572206e6f7220617070726f76656420666f7220616c6c4552433732313a2062616c616e636520717565727920666f7220746865207a65726f20616464726573734552433732313a206f776e657220717565727920666f72206e6f6e6578697374656e7420746f6b656e456e756d657261626c654d61703a20696e646578206f7574206f6620626f756e64734552433732313a20617070726f76656420717565727920666f72206e6f6e6578697374656e7420746f6b656e4552433732313a207472616e73666572206f6620746f6b656e2074686174206973206e6f74206f776e4552433732314d657461646174613a2055524920717565727920666f72206e6f6e6578697374656e7420746f6b656e4552433732313a20617070726f76616c20746f2063757272656e74206f776e65724552433732313a207472616e736665722063616c6c6572206973206e6f74206f776e6572206e6f7220617070726f7665646120646174652066726f6d20746865206675747572652063616e277420626520636c61696d6564a2646970667358221220a9fd4875db860f9aafb7b546fb9bbb89b62342d8e43bc3c3771760b3a099cb4264736f6c634300070600334552433732313a207472616e7366657220746f206e6f6e20455243373231526563656976657220696d706c656d656e746572416464726573733a20696e73756666696369656e742062616c616e636520666f722063616c6c576527766520666f756e64206f7572206e65787420686f6d652c204b65706c65722d32326268747470733a2f2f6f70656e736561312e64696769706572736f6e2e77696e2f746f6b656e2f",
  "immutableReferences": {},
  "source": "// SPDX-License-Identifier: MIT\npragma solidity >=0.4.22 <0.9.0;\n\nimport \"@openzeppelin/contracts/access/Ownable.sol\";\nimport \"@openzeppelin/contracts/token/ERC721/ERC721.sol\";\n\n//import \"@openzeppelin/contracts/token/ERC721/extensions/ERC721Enumerable.sol\";\n\ncontract Date is Ownable, ERC721{\n\n    struct Metadata {\n        uint16 year;\n        uint8 month;\n        uint8 day;\n        uint8 color;\n        string title;\n    }\n\n    mapping(uint256 => Metadata) id_to_date;\n\n    string private _currentBaseURI;\n\n    constructor() ERC721 (\"Date\", \"DATE\") {\n        setBaseURI(\"https://opensea1.digiperson.win/token/\");\n\n        mint(1, 1, 1, 4, \"ORIGIN\");\n        (uint16 now_year, uint8 now_month, uint8 now_day) = timestampToDate(block.timestamp);\n        mint(now_year, now_month, now_day, 4, \"Date Token Start\");\n        mint(2015, 7, 30, 6, \"ETH GENESIS\");\n        mint(2000, 1, 1, 5, \"The new century\");\n        mint(2009, 1, 3, 1, \"Bitcoin was born.\");\n        mint(2001, 9, 11, 2, \"Never forget\");\n        mint(1969, 7, 20, 3, \"One small step for man\");\n        mint(1971, 6, 28, 7, \"Elon's Birthday\");\n        mint(2011, 12, 5, 0, \"We've found our next home, Kepler-22b\");\n    }\n\n    /*\n        function _beforeTokenTransfer(address from, address to, uint256 tokenId)\n        internal\n        override(ERC721, ERC721Enumerable)\n        {\n            super._beforeTokenTransfer(from, to, tokenId);\n        }\n\n        function supportsInterface(bytes4 interfaceId)\n        public\n        view\n        override(ERC721, ERC721Enumerable)\n        returns (bool)\n        {\n            return super.supportsInterface(interfaceId);\n        }\n    */\n\n    function setBaseURI(string memory baseURI_t) public onlyOwner {\n        _currentBaseURI = baseURI_t;\n    }\n\n    function baseURI() public view override  returns (string memory) {\n        return _currentBaseURI;\n    }\n\n    function mint(uint16 year, uint8 month, uint8 day, uint8 color, string memory title) internal {\n        uint256 tokenId = id(year, month, day);\n        \n        id_to_date[tokenId] = Metadata(year, month, day, color, title);\n        _safeMint(msg.sender, tokenId);\n    }\n\n    function claim(uint16 year, uint8 month, uint8 day, string calldata title) external payable {\n        require(msg.value == 0.01 ether, \"claiming a date costs 10 finney\");\n\n        (uint16 now_year, uint8 now_month, uint8 now_day) = timestampToDate(block.timestamp);\n        if ((year > now_year) || \n            (year == now_year && month > now_month) || \n            (year == now_year && month == now_month && day > now_day)) {\n            revert(\"a date from the future can't be claimed\");\n        }\n\n        uint8 color;\n        uint256 r = pseudoRNG(year, month, day, title) % 1000000;\n        if (r < 1000) {\n            color = 7;\n        } else if (r < 6000) {\n            color = 6;\n        } else if (r < 16000) {\n            color = 5;\n        } else if (r < 66000) {\n            color = 4;\n        } else if (r < 166000) {\n            color = 3;\n        } else if (r < 366000) {\n            color = 2;\n        } else if (r < 666000) {\n            color = 1;\n        } else {\n            color = 0;\n        }\n\n        mint(year, month, day, color, title);\n        payable(owner()).transfer(0.01 ether);\n    }\n\n    function ownerOf(uint16 year, uint8 month, uint8 day) public view returns(address) {\n        return ownerOf(id(year, month, day));\n    }\n\n    function id(uint16 year, uint8 month, uint8 day) pure internal returns(uint256) {\n        require(1 <= day && day <= numDaysInMonth(month, year));\n        return (uint256(year)-1)*372 + (uint256(month)-1)*31 + uint256(day)-1;\n    }\n\n    function get(uint256 tokenId) external view returns (uint16 year, uint8 month, uint8 day, uint8 color, string memory title) {\n        require(_exists(tokenId), \"token not minted\");\n        Metadata memory date = id_to_date[tokenId];\n        year = date.year;\n        month = date.month;\n        day = date.day;\n        color = date.color;\n        title = date.title;\n    }\n\n    function titleOf(uint256 tokenId) external view returns (string memory) {\n        require(_exists(tokenId), \"token not minted\");\n        Metadata memory date = id_to_date[tokenId];\n        return date.title;\n    }\n\n    function titleOf(uint16 year, uint8 month, uint8 day) external view returns (string memory) {\n        require(_exists(id(year, month, day)), \"token not minted\");\n        Metadata memory date = id_to_date[id(year, month, day)];\n        return date.title;\n    }\n\n    function changeTitleOf(uint16 year, uint8 month, uint8 day, string memory title) external {\n        require(_exists(id(year, month, day)), \"token not minted\");\n        changeTitleOf(id(year, month, day), title);\n    }\n\n    function changeTitleOf(uint256 tokenId, string memory title) public {\n        require(_exists(tokenId), \"token not minted\");\n        require(ownerOf(tokenId) == msg.sender, \"only the owner of this date can change its title\");\n        id_to_date[tokenId].title = title;\n    }\n\n    function isLeapYear(uint16 year) public pure returns (bool) {\n        require(1 <= year, \"year must be bigger or equal 1\");\n        return (year % 4 == 0) \n            && (year % 100 == 0)\n            && (year % 400 == 0);\n    }\n\n    function numDaysInMonth(uint8 month, uint16 year) public pure returns (uint8) {\n        require(1 <= month && month <= 12, \"month must be between 1 and 12\");\n        require(1 <= year, \"year must be bigger or equal 1\");\n\n        if (month == 1 || month == 3 || month == 5 || month == 7 || month == 8 || month == 10 || month == 12) {\n            return 31;\n        }\n        else if (month == 2) {\n            return isLeapYear(year) ? 29 : 28;\n        }\n        else {\n            return 30;\n        }\n    }\n\n    function timestampToDate(uint timestamp) public pure returns (uint16 year, uint8 month, uint8 day) {\n        uint z = timestamp / 86400 + 719468;\n        uint era = (z >= 0 ? z : z - 146096) / 146097;\n        uint doe = z - era * 146097;\n        uint yoe = (doe - doe/1460 + doe/36524 - doe/146096) / 365;\n        uint doy = doe - (365*yoe + yoe/4 - yoe/100);\n        uint mp = (5*doy + 2)/153;\n\n        day = uint8(doy - (153*mp+2)/5 + 1);\n        month = mp < 10 ? uint8(mp + 3) : uint8(mp - 9);\n        year = uint16(yoe + era * 400 + (month <= 2 ? 1 : 0));\n    }\n\n    function pseudoRNG(uint16 year, uint8 month, uint8 day, string memory title) internal view returns (uint256) {\n        return uint256(keccak256(abi.encode(block.timestamp, block.difficulty, year, month, day, title)));\n    }\n}",
  "sourcePath": "E:\\WORK\\Crypto\\NFTs\\opensea\\nft\\contracts\\Date.sol",
  "compiler": {
    "name": "solc",
    "version": "0.7.6+commit.7338295f.Emscripten.clang"
  },
  "schemaVersion": "3.4.3",
  "updatedAt": "2021-11-15T15:38:47.973Z",
  "devdoc": {
    "kind": "dev",
    "methods": {
      "approve(address,uint256)": {
        "details": "See {IERC721-approve}."
      },
      "balanceOf(address)": {
        "details": "See {IERC721-balanceOf}."
      },
      "baseURI()": {
        "details": "Returns the base URI set via {_setBaseURI}. This will be automatically added as a prefix in {tokenURI} to each token's URI, or to the token ID if no specific URI is set for that token ID."
      },
      "getApproved(uint256)": {
        "details": "See {IERC721-getApproved}."
      },
      "isApprovedForAll(address,address)": {
        "details": "See {IERC721-isApprovedForAll}."
      },
      "name()": {
        "details": "See {IERC721Metadata-name}."
      },
      "owner()": {
        "details": "Returns the address of the current owner."
      },
      "ownerOf(uint256)": {
        "details": "See {IERC721-ownerOf}."
      },
      "renounceOwnership()": {
        "details": "Leaves the contract without owner. It will not be possible to call `onlyOwner` functions anymore. Can only be called by the current owner. NOTE: Renouncing ownership will leave the contract without an owner, thereby removing any functionality that is only available to the owner."
      },
      "safeTransferFrom(address,address,uint256)": {
        "details": "See {IERC721-safeTransferFrom}."
      },
      "safeTransferFrom(address,address,uint256,bytes)": {
        "details": "See {IERC721-safeTransferFrom}."
      },
      "setApprovalForAll(address,bool)": {
        "details": "See {IERC721-setApprovalForAll}."
      },
      "supportsInterface(bytes4)": {
        "details": "See {IERC165-supportsInterface}. Time complexity O(1), guaranteed to always use less than 30 000 gas."
      },
      "symbol()": {
        "details": "See {IERC721Metadata-symbol}."
      },
      "tokenByIndex(uint256)": {
        "details": "See {IERC721Enumerable-tokenByIndex}."
      },
      "tokenOfOwnerByIndex(address,uint256)": {
        "details": "See {IERC721Enumerable-tokenOfOwnerByIndex}."
      },
      "tokenURI(uint256)": {
        "details": "See {IERC721Metadata-tokenURI}."
      },
      "totalSupply()": {
        "details": "See {IERC721Enumerable-totalSupply}."
      },
      "transferFrom(address,address,uint256)": {
        "details": "See {IERC721-transferFrom}."
      },
      "transferOwnership(address)": {
        "details": "Transfers ownership of the contract to a new account (`newOwner`). Can only be called by the current owner."
      }
    },
    "version": 1
  },
  "userdoc": {
    "kind": "user",
    "methods": {},
    "version": 1
  }
}