{
  "contractName": "Date",
  "abi": [
    {
      "inputs": [],
      "stateMutability": "nonpayable",
      "type": "constructor"
    },
    {
      "anonymous": false,
      "inputs": [
        {
          "indexed": true,
          "internalType": "address",
          "name": "owner",
          "type": "address"
        },
        {
          "indexed": true,
          "internalType": "address",
          "name": "approved",
          "type": "address"
        },
        {
          "indexed": true,
          "internalType": "uint256",
          "name": "tokenId",
          "type": "uint256"
        }
      ],
      "name": "Approval",
      "type": "event"
    },
    {
      "anonymous": false,
      "inputs": [
        {
          "indexed": true,
          "internalType": "address",
          "name": "owner",
          "type": "address"
        },
        {
          "indexed": true,
          "internalType": "address",
          "name": "operator",
          "type": "address"
        },
        {
          "indexed": false,
          "internalType": "bool",
          "name": "approved",
          "type": "bool"
        }
      ],
      "name": "ApprovalForAll",
      "type": "event"
    },
    {
      "anonymous": false,
      "inputs": [
        {
          "indexed": true,
          "internalType": "address",
          "name": "previousOwner",
          "type": "address"
        },
        {
          "indexed": true,
          "internalType": "address",
          "name": "newOwner",
          "type": "address"
        }
      ],
      "name": "OwnershipTransferred",
      "type": "event"
    },
    {
      "anonymous": false,
      "inputs": [
        {
          "indexed": true,
          "internalType": "address",
          "name": "from",
          "type": "address"
        },
        {
          "indexed": true,
          "internalType": "address",
          "name": "to",
          "type": "address"
        },
        {
          "indexed": true,
          "internalType": "uint256",
          "name": "tokenId",
          "type": "uint256"
        }
      ],
      "name": "Transfer",
      "type": "event"
    },
    {
      "inputs": [
        {
          "internalType": "address",
          "name": "to",
          "type": "address"
        },
        {
          "internalType": "uint256",
          "name": "tokenId",
          "type": "uint256"
        }
      ],
      "name": "approve",
      "outputs": [],
      "stateMutability": "nonpayable",
      "type": "function"
    },
    {
      "inputs": [
        {
          "internalType": "address",
          "name": "owner",
          "type": "address"
        }
      ],
      "name": "balanceOf",
      "outputs": [
        {
          "internalType": "uint256",
          "name": "",
          "type": "uint256"
        }
      ],
      "stateMutability": "view",
      "type": "function"
    },
    {
      "inputs": [
        {
          "internalType": "uint256",
          "name": "tokenId",
          "type": "uint256"
        }
      ],
      "name": "getApproved",
      "outputs": [
        {
          "internalType": "address",
          "name": "",
          "type": "address"
        }
      ],
      "stateMutability": "view",
      "type": "function"
    },
    {
      "inputs": [
        {
          "internalType": "address",
          "name": "owner",
          "type": "address"
        },
        {
          "internalType": "address",
          "name": "operator",
          "type": "address"
        }
      ],
      "name": "isApprovedForAll",
      "outputs": [
        {
          "internalType": "bool",
          "name": "",
          "type": "bool"
        }
      ],
      "stateMutability": "view",
      "type": "function"
    },
    {
      "inputs": [],
      "name": "name",
      "outputs": [
        {
          "internalType": "string",
          "name": "",
          "type": "string"
        }
      ],
      "stateMutability": "view",
      "type": "function"
    },
    {
      "inputs": [],
      "name": "owner",
      "outputs": [
        {
          "internalType": "address",
          "name": "",
          "type": "address"
        }
      ],
      "stateMutability": "view",
      "type": "function"
    },
    {
      "inputs": [],
      "name": "renounceOwnership",
      "outputs": [],
      "stateMutability": "nonpayable",
      "type": "function"
    },
    {
      "inputs": [
        {
          "internalType": "address",
          "name": "from",
          "type": "address"
        },
        {
          "internalType": "address",
          "name": "to",
          "type": "address"
        },
        {
          "internalType": "uint256",
          "name": "tokenId",
          "type": "uint256"
        }
      ],
      "name": "safeTransferFrom",
      "outputs": [],
      "stateMutability": "nonpayable",
      "type": "function"
    },
    {
      "inputs": [
        {
          "internalType": "address",
          "name": "from",
          "type": "address"
        },
        {
          "internalType": "address",
          "name": "to",
          "type": "address"
        },
        {
          "internalType": "uint256",
          "name": "tokenId",
          "type": "uint256"
        },
        {
          "internalType": "bytes",
          "name": "_data",
          "type": "bytes"
        }
      ],
      "name": "safeTransferFrom",
      "outputs": [],
      "stateMutability": "nonpayable",
      "type": "function"
    },
    {
      "inputs": [
        {
          "internalType": "address",
          "name": "operator",
          "type": "address"
        },
        {
          "internalType": "bool",
          "name": "approved",
          "type": "bool"
        }
      ],
      "name": "setApprovalForAll",
      "outputs": [],
      "stateMutability": "nonpayable",
      "type": "function"
    },
    {
      "inputs": [
        {
          "internalType": "bytes4",
          "name": "interfaceId",
          "type": "bytes4"
        }
      ],
      "name": "supportsInterface",
      "outputs": [
        {
          "internalType": "bool",
          "name": "",
          "type": "bool"
        }
      ],
      "stateMutability": "view",
      "type": "function"
    },
    {
      "inputs": [],
      "name": "symbol",
      "outputs": [
        {
          "internalType": "string",
          "name": "",
          "type": "string"
        }
      ],
      "stateMutability": "view",
      "type": "function"
    },
    {
      "inputs": [
        {
          "internalType": "uint256",
          "name": "tokenId",
          "type": "uint256"
        }
      ],
      "name": "tokenURI",
      "outputs": [
        {
          "internalType": "string",
          "name": "",
          "type": "string"
        }
      ],
      "stateMutability": "view",
      "type": "function"
    },
    {
      "inputs": [
        {
          "internalType": "address",
          "name": "from",
          "type": "address"
        },
        {
          "internalType": "address",
          "name": "to",
          "type": "address"
        },
        {
          "internalType": "uint256",
          "name": "tokenId",
          "type": "uint256"
        }
      ],
      "name": "transferFrom",
      "outputs": [],
      "stateMutability": "nonpayable",
      "type": "function"
    },
    {
      "inputs": [
        {
          "internalType": "address",
          "name": "newOwner",
          "type": "address"
        }
      ],
      "name": "transferOwnership",
      "outputs": [],
      "stateMutability": "nonpayable",
      "type": "function"
    },
    {
      "inputs": [
        {
          "internalType": "string",
          "name": "baseURI",
          "type": "string"
        }
      ],
      "name": "setBaseURI",
      "outputs": [],
      "stateMutability": "nonpayable",
      "type": "function"
    },
    {
      "inputs": [
        {
          "internalType": "uint16",
          "name": "year",
          "type": "uint16"
        },
        {
          "internalType": "uint8",
          "name": "month",
          "type": "uint8"
        },
        {
          "internalType": "uint8",
          "name": "day",
          "type": "uint8"
        },
        {
          "internalType": "string",
          "name": "title",
          "type": "string"
        }
      ],
      "name": "claim",
      "outputs": [],
      "stateMutability": "payable",
      "type": "function"
    },
    {
      "inputs": [
        {
          "internalType": "uint16",
          "name": "year",
          "type": "uint16"
        },
        {
          "internalType": "uint8",
          "name": "month",
          "type": "uint8"
        },
        {
          "internalType": "uint8",
          "name": "day",
          "type": "uint8"
        }
      ],
      "name": "ownerOf",
      "outputs": [
        {
          "internalType": "address",
          "name": "",
          "type": "address"
        }
      ],
      "stateMutability": "view",
      "type": "function"
    },
    {
      "inputs": [
        {
          "internalType": "uint256",
          "name": "tokenId",
          "type": "uint256"
        }
      ],
      "name": "ownerOf",
      "outputs": [
        {
          "internalType": "address",
          "name": "",
          "type": "address"
        }
      ],
      "stateMutability": "view",
      "type": "function"
    },
    {
      "inputs": [
        {
          "internalType": "uint256",
          "name": "tokenId",
          "type": "uint256"
        }
      ],
      "name": "get",
      "outputs": [
        {
          "internalType": "uint16",
          "name": "year",
          "type": "uint16"
        },
        {
          "internalType": "uint8",
          "name": "month",
          "type": "uint8"
        },
        {
          "internalType": "uint8",
          "name": "day",
          "type": "uint8"
        },
        {
          "internalType": "uint8",
          "name": "color",
          "type": "uint8"
        },
        {
          "internalType": "string",
          "name": "title",
          "type": "string"
        }
      ],
      "stateMutability": "view",
      "type": "function"
    },
    {
      "inputs": [
        {
          "internalType": "uint16",
          "name": "year",
          "type": "uint16"
        },
        {
          "internalType": "uint8",
          "name": "month",
          "type": "uint8"
        },
        {
          "internalType": "uint8",
          "name": "day",
          "type": "uint8"
        }
      ],
      "name": "titleOf",
      "outputs": [
        {
          "internalType": "string",
          "name": "",
          "type": "string"
        }
      ],
      "stateMutability": "view",
      "type": "function"
    },
    {
      "inputs": [
        {
          "internalType": "uint256",
          "name": "tokenId",
          "type": "uint256"
        }
      ],
      "name": "titleOf",
      "outputs": [
        {
          "internalType": "string",
          "name": "",
          "type": "string"
        }
      ],
      "stateMutability": "view",
      "type": "function"
    },
    {
      "inputs": [
        {
          "internalType": "uint16",
          "name": "year",
          "type": "uint16"
        },
        {
          "internalType": "uint8",
          "name": "month",
          "type": "uint8"
        },
        {
          "internalType": "uint8",
          "name": "day",
          "type": "uint8"
        },
        {
          "internalType": "string",
          "name": "title",
          "type": "string"
        }
      ],
      "name": "changeTitleOf",
      "outputs": [],
      "stateMutability": "nonpayable",
      "type": "function"
    },
    {
      "inputs": [
        {
          "internalType": "uint256",
          "name": "tokenId",
          "type": "uint256"
        },
        {
          "internalType": "string",
          "name": "title",
          "type": "string"
        }
      ],
      "name": "changeTitleOf",
      "outputs": [],
      "stateMutability": "nonpayable",
      "type": "function"
    },
    {
      "inputs": [
        {
          "internalType": "uint16",
          "name": "year",
          "type": "uint16"
        }
      ],
      "name": "isLeapYear",
      "outputs": [
        {
          "internalType": "bool",
          "name": "",
          "type": "bool"
        }
      ],
      "stateMutability": "pure",
      "type": "function"
    },
    {
      "inputs": [
        {
          "internalType": "uint8",
          "name": "month",
          "type": "uint8"
        },
        {
          "internalType": "uint16",
          "name": "year",
          "type": "uint16"
        }
      ],
      "name": "numDaysInMonth",
      "outputs": [
        {
          "internalType": "uint8",
          "name": "",
          "type": "uint8"
        }
      ],
      "stateMutability": "pure",
      "type": "function"
    },
    {
      "inputs": [
        {
          "internalType": "uint256",
          "name": "timestamp",
          "type": "uint256"
        }
      ],
      "name": "timestampToDate",
      "outputs": [
        {
          "internalType": "uint16",
          "name": "year",
          "type": "uint16"
        },
        {
          "internalType": "uint8",
          "name": "month",
          "type": "uint8"
        },
        {
          "internalType": "uint8",
          "name": "day",
          "type": "uint8"
        }
      ],
      "stateMutability": "pure",
      "type": "function"
    }
  ],
  "bytecode": "0x60806040523480156200001157600080fd5b506040518060400160405280600481526020017f44617465000000000000000000000000000000000000000000000000000000008152506040518060400160405280600481526020017f44415445000000000000000000000000000000000000000000000000000000008152506200009862000092620003c160201b60201c565b620003c5565b8151620000ad90600190602085019062000e80565b508051620000c390600290602084019062000e80565b505060408051808201909152601d81527f68747470733a2f2f646174652e6b69652e636f6465732f746f6b656e2f000000602082015262000105915062000415565b62000152600180600160046040518060400160405280600681526020017f4f524947494e0000000000000000000000000000000000000000000000000000815250620004a860201b60201c565b60008080620001614262000584565b925092509250620001b283838360046040518060400160405280601081526020017f4461746520546f6b656e20537461727400000000000000000000000000000000815250620004a860201b60201c565b620002016107df6007601e60066040518060400160405280600b81526020017f4554482047454e45534953000000000000000000000000000000000000000000815250620004a860201b60201c565b6200024f6107d060018060056040518060400160405280600f81526020017f546865206e65772063656e747572790000000000000000000000000000000000815250620004a860201b60201c565b6200029e6107d96001600360016040518060400160405280601181526020017f426974636f696e2077617320626f726e2e000000000000000000000000000000815250620004a860201b60201c565b620002ed6107d16009600b60026040518060400160405280600c81526020017f4e6576657220666f726765740000000000000000000000000000000000000000815250620004a860201b60201c565b6200033c6107b16007601460036040518060400160405280601681526020017f4f6e6520736d616c6c207374657020666f72206d616e00000000000000000000815250620004a860201b60201c565b6200038b6107b36006601c60076040518060400160405280600f81526020017f456c6f6e27732042697274686461790000000000000000000000000000000000815250620004a860201b60201c565b620003b86107db600c6005600060405180606001604052806025815260200162003a8860259139620004a8565b50505062001132565b3390565b600080546001600160a01b038381166001600160a01b0319831681178455604051919092169283917f8be0079c531659141344cd1fd0a4f28419497f9722a3daafe3b4186f6b6457e09190a35050565b6000546001600160a01b031633146200048f576040517f08c379a000000000000000000000000000000000000000000000000000000000815260206004820181905260248201527f4f776e61626c653a2063616c6c6572206973206e6f7420746865206f776e657260448201526064015b60405180910390fd5b8051620004a490600890602084019062000e80565b5050565b6000620004b786868662000777565b6040805160a08101825261ffff808a16825260ff808a1660208085019182528a83168587019081528a841660608701908152608087018b815260008a815260078552989098208751815495519351925187166401000000000260ff60201b199388166301000000029390931664ffff0000001994909716620100000262ffffff1990961697169690961793909317169290921717825592518051949550919390926200056b92600185019291019062000e80565b506200057c91503390508262000819565b505050505050565b600080808062000598620151808662000f84565b620005a790620afa6c62000f9b565b90506000620005ba62023ab18362000f84565b90506000620005cd8262023ab162000fd0565b620005d9908462000fb6565b9050600061016d620005ef62023ab08462000f84565b620005fd618eac8562000f84565b6200060b6105b48662000f84565b62000617908662000fb6565b62000623919062000f9b565b6200062f919062000fb6565b6200063b919062000f84565b905060006200064c60648362000f84565b6200065960048462000f84565b620006678461016d62000fd0565b62000673919062000f9b565b6200067f919062000fb6565b6200068b908462000fb6565b9050600060996200069e83600562000fd0565b620006ab90600262000f9b565b620006b7919062000f84565b90506005620006c882609962000fd0565b620006d590600262000f9b565b620006e1919062000f84565b620006ed908362000fb6565b620006fa90600162000f9b565b9650600a811062000718576200071260098262000fb6565b62000725565b6200072581600362000f9b565b975060028860ff1611156200073c5760006200073f565b60015b60ff16620007508661019062000fd0565b6200075c908562000f9b565b62000768919062000f9b565b98505050505050509193909250565b60008160ff166001111580156200079f57506200079583856200083b565b60ff168260ff1611155b620007a957600080fd5b60018260ff1660018560ff16620007c1919062000fb6565b620007ce90601f62000fd0565b620007df600161ffff891662000fb6565b620007ed9061017462000fd0565b620007f9919062000f9b565b62000805919062000f9b565b62000811919062000fb6565b949350505050565b620004a4828260405180602001604052806000815250620009d960201b60201c565b60008260ff16600111158015620008565750600c8360ff1611155b620008be576040517f08c379a000000000000000000000000000000000000000000000000000000000815260206004820152601e60248201527f6d6f6e7468206d757374206265206265747765656e203120616e642031320000604482015260640162000486565b8161ffff16600111156200092f576040517f08c379a000000000000000000000000000000000000000000000000000000000815260206004820152601e60248201527f79656172206d75737420626520626967676572206f7220657175616c20310000604482015260640162000486565b8260ff16600114806200094557508260ff166003145b806200095457508260ff166005145b806200096357508260ff166007145b806200097257508260ff166008145b806200098157508260ff16600a145b806200099057508260ff16600c145b156200099f5750601f620009d3565b8260ff1660021415620009cf57620009b78262000a76565b620009c457601c620009c7565b601d5b9050620009d3565b50601e5b92915050565b620009e5838362000b37565b620009f4600084848462000cb3565b62000a71576040517f08c379a0000000000000000000000000000000000000000000000000000000008152602060048201526032602482015260008051602062003a6883398151915260448201527f63656976657220696d706c656d656e7465720000000000000000000000000000606482015260840162000486565b505050565b60008161ffff166001111562000ae9576040517f08c379a000000000000000000000000000000000000000000000000000000000815260206004820152601e60248201527f79656172206d75737420626520626967676572206f7220657175616c20310000604482015260640162000486565b62000af660048362000ff2565b61ffff1615801562000b16575062000b1060648362000ff2565b61ffff16155b8015620009d3575062000b2c6101908362000ff2565b61ffff161592915050565b6001600160a01b03821662000ba9576040517f08c379a000000000000000000000000000000000000000000000000000000000815260206004820181905260248201527f4552433732313a206d696e7420746f20746865207a65726f2061646472657373604482015260640162000486565b6000818152600360205260409020546001600160a01b03161562000c2a576040517f08c379a000000000000000000000000000000000000000000000000000000000815260206004820152601c60248201527f4552433732313a20746f6b656e20616c7265616479206d696e74656400000000604482015260640162000486565b6001600160a01b038216600090815260046020526040812080546001929062000c5590849062000f9b565b909155505060008181526003602052604080822080546001600160a01b0319166001600160a01b03861690811790915590518392907fddf252ad1be2c89b69c2b068fc378daa952ba7f163c4a11628f55a4df523b3ef908290a45050565b600062000cd4846001600160a01b031662000e7a60201b6200173e1760201c565b1562000e6f576040517f150b7a020000000000000000000000000000000000000000000000000000000081526001600160a01b0385169063150b7a029062000d2790339089908890889060040162001016565b6020604051808303816000875af192505050801562000d65575060408051601f3d908101601f1916820190925262000d629181019062001091565b60015b62000e23573d80801562000d96576040519150601f19603f3d011682016040523d82523d6000602084013e62000d9b565b606091505b50805162000e1b576040517f08c379a0000000000000000000000000000000000000000000000000000000008152602060048201526032602482015260008051602062003a6883398151915260448201527f63656976657220696d706c656d656e7465720000000000000000000000000000606482015260840162000486565b805181602001fd5b7fffffffff00000000000000000000000000000000000000000000000000000000167f150b7a020000000000000000000000000000000000000000000000000000000014905062000811565b506001949350505050565b3b151590565b82805462000e8e90620010dc565b90600052602060002090601f01602090048101928262000eb2576000855562000efd565b82601f1062000ecd57805160ff191683800117855562000efd565b8280016001018555821562000efd579182015b8281111562000efd57825182559160200191906001019062000ee0565b5062000f0b92915062000f0f565b5090565b5b8082111562000f0b576000815560010162000f10565b7f4e487b7100000000000000000000000000000000000000000000000000000000600052601260045260246000fd5b7f4e487b7100000000000000000000000000000000000000000000000000000000600052601160045260246000fd5b60008262000f965762000f9662000f26565b500490565b6000821982111562000fb15762000fb162000f55565b500190565b60008282101562000fcb5762000fcb62000f55565b500390565b600081600019048311821515161562000fed5762000fed62000f55565b500290565b600061ffff808416806200100a576200100a62000f26565b92169190910692915050565b600060018060a01b038087168352602081871681850152856040850152608060608501528451915081608085015260005b82811015620010655785810182015185820160a00152810162001047565b828111156200107857600060a084870101525b5050601f01601f19169190910160a00195945050505050565b600060208284031215620010a457600080fd5b81517fffffffff0000000000000000000000000000000000000000000000000000000081168114620010d557600080fd5b9392505050565b600181811c90821680620010f157607f821691505b602082108114156200112c577f4e487b7100000000000000000000000000000000000000000000000000000000600052602260045260246000fd5b50919050565b61292680620011426000396000f3fe60806040526004361061019c5760003560e01c8063715018a6116100ec578063b3a083fa1161008a578063daf7c16611610064578063daf7c166146104be578063de5101af146104de578063e985e9c514610522578063f2fde38b1461056b57600080fd5b8063b3a083fa1461045e578063b88d4fde1461047e578063c87b56dd1461049e57600080fd5b806395d89b41116100c657806395d89b41146103e9578063a22cb465146103fe578063a6f0e5771461041e578063a8c243301461043e57600080fd5b8063715018a6146103855780638da5cb5b1461039a5780639507d39a146103b857600080fd5b806339eac6ab1161015957806355f804b31161013357806355f804b3146103045780635b6f29b7146103245780636352211e1461033757806370a082311461035757600080fd5b806339eac6ab1461029257806342842e0e146102b25780635333f08f146102d257600080fd5b806301ffc9a7146101a157806306fdde03146101d6578063081812fc146101f8578063095ea7b314610230578063232f8ecc1461025257806323b872dd14610272575b600080fd5b3480156101ad57600080fd5b506101c16101bc3660046120ab565b61058b565b60405190151581526020015b60405180910390f35b3480156101e257600080fd5b506101eb6105dd565b6040516101cd9190612120565b34801561020457600080fd5b50610218610213366004612133565b61066f565b6040516001600160a01b0390911681526020016101cd565b34801561023c57600080fd5b5061025061024b366004612168565b6106fc565b005b34801561025e57600080fd5b5061025061026d366004612261565b610812565b34801561027e57600080fd5b5061025061028d3660046122d0565b61085b565b34801561029e57600080fd5b506102186102ad36600461230c565b61088c565b3480156102be57600080fd5b506102506102cd3660046122d0565b6108a4565b3480156102de57600080fd5b506102f26102ed36600461234f565b6108bf565b60405160ff90911681526020016101cd565b34801561031057600080fd5b5061025061031f366004612382565b610a15565b6102506103323660046123b7565b610a56565b34801561034357600080fd5b50610218610352366004612133565b610ceb565b34801561036357600080fd5b50610377610372366004612459565b610d62565b6040519081526020016101cd565b34801561039157600080fd5b50610250610de9565b3480156103a657600080fd5b506000546001600160a01b0316610218565b3480156103c457600080fd5b506103d86103d3366004612133565b610e1f565b6040516101cd959493929190612474565b3480156103f557600080fd5b506101eb610f65565b34801561040a57600080fd5b506102506104193660046124b7565b610f74565b34801561042a57600080fd5b506101c16104393660046124f3565b611039565b34801561044a57600080fd5b506101eb61045936600461230c565b6110d6565b34801561046a57600080fd5b5061025061047936600461250e565b611211565b34801561048a57600080fd5b50610250610499366004612555565b6112d4565b3480156104aa57600080fd5b506101eb6104b9366004612133565b611306565b3480156104ca57600080fd5b506101eb6104d9366004612133565b6113d1565b3480156104ea57600080fd5b506104fe6104f9366004612133565b6114f2565b6040805161ffff909416845260ff92831660208501529116908201526060016101cd565b34801561052e57600080fd5b506101c161053d3660046125c5565b6001600160a01b03918216600090815260066020908152604080832093909416825291909152205460ff1690565b34801561057757600080fd5b50610250610586366004612459565b6116a3565b60006001600160e01b031982166380ac58cd60e01b14806105bc57506001600160e01b03198216635b5e139f60e01b145b806105d757506301ffc9a760e01b6001600160e01b03198316145b92915050565b6060600180546105ec906125ef565b80601f0160208091040260200160405190810160405280929190818152602001828054610618906125ef565b80156106655780601f1061063a57610100808354040283529160200191610665565b820191906000526020600020905b81548152906001019060200180831161064857829003601f168201915b5050505050905090565b600061067a82611744565b6106e05760405162461bcd60e51b815260206004820152602c60248201527f4552433732313a20617070726f76656420717565727920666f72206e6f6e657860448201526b34b9ba32b73a103a37b5b2b760a11b60648201526084015b60405180910390fd5b506000908152600560205260409020546001600160a01b031690565b600061070782610ceb565b9050806001600160a01b0316836001600160a01b031614156107755760405162461bcd60e51b815260206004820152602160248201527f4552433732313a20617070726f76616c20746f2063757272656e74206f776e656044820152603960f91b60648201526084016106d7565b336001600160a01b03821614806107915750610791813361053d565b6108035760405162461bcd60e51b815260206004820152603860248201527f4552433732313a20617070726f76652063616c6c6572206973206e6f74206f7760448201527f6e6572206e6f7220617070726f76656420666f7220616c6c000000000000000060648201526084016106d7565b61080d8383611761565b505050565b6108256108208585856117cf565b611744565b6108415760405162461bcd60e51b81526004016106d79061262a565b61085561084f8585856117cf565b82611211565b50505050565b6108653382611857565b6108815760405162461bcd60e51b81526004016106d790612654565b61080d83838361193d565b600061089c6103528585856117cf565b949350505050565b61080d838383604051806020016040528060008152506112d4565b60008260ff166001111580156108d95750600c8360ff1611155b6109255760405162461bcd60e51b815260206004820152601e60248201527f6d6f6e7468206d757374206265206265747765656e203120616e64203132000060448201526064016106d7565b8161ffff166001111561097a5760405162461bcd60e51b815260206004820152601e60248201527f79656172206d75737420626520626967676572206f7220657175616c2031000060448201526064016106d7565b8260ff166001148061098f57508260ff166003145b8061099d57508260ff166005145b806109ab57508260ff166007145b806109b957508260ff166008145b806109c757508260ff16600a145b806109d557508260ff16600c145b156109e25750601f6105d7565b8260ff1660021415610a0c576109f782611039565b610a0257601c610a05565b601d5b90506105d7565b50601e92915050565b6000546001600160a01b03163314610a3f5760405162461bcd60e51b81526004016106d7906126a5565b8051610a52906008906020840190611ffc565b5050565b34662386f26fc1000014610aac5760405162461bcd60e51b815260206004820152601f60248201527f636c61696d696e672061206461746520636f7374732031302066696e6e65790060448201526064016106d7565b6000806000610aba426114f2565b9250925092508261ffff168861ffff161180610aed57508261ffff168861ffff16148015610aed57508160ff168760ff16115b80610b2057508261ffff168861ffff16148015610b0f57508160ff168760ff16145b8015610b2057508060ff168660ff16115b15610b7d5760405162461bcd60e51b815260206004820152602760248201527f6120646174652066726f6d20746865206675747572652063616e27742062652060448201526618db185a5b595960ca1b60648201526084016106d7565b600080620f4240610bc68b8b8b8b8b8080601f016020809104026020016040519081016040528093929190818152602001838380828437600092019190915250611add92505050565b610bd091906126f0565b90506103e8811015610be55760079150610c60565b611770811015610bf85760069150610c60565b613e80811015610c0b5760059150610c60565b620101d0811015610c1f5760049150610c60565b62028870811015610c335760039150610c60565b620595b0811015610c475760029150610c60565b620a2990811015610c5b5760019150610c60565b600091505b610ca38a8a8a858b8b8080601f016020809104026020016040519081016040528093929190818152602001838380828437600092019190915250611b1b92505050565b600080546040516001600160a01b039091169190662386f26fc100009082818181858883f19350505050158015610cde573d6000803e3d6000fd5b5050505050505050505050565b6000818152600360205260408120546001600160a01b0316806105d75760405162461bcd60e51b815260206004820152602960248201527f4552433732313a206f776e657220717565727920666f72206e6f6e657869737460448201526832b73a103a37b5b2b760b91b60648201526084016106d7565b60006001600160a01b038216610dcd5760405162461bcd60e51b815260206004820152602a60248201527f4552433732313a2062616c616e636520717565727920666f7220746865207a65604482015269726f206164647265737360b01b60648201526084016106d7565b506001600160a01b031660009081526004602052604090205490565b6000546001600160a01b03163314610e135760405162461bcd60e51b81526004016106d7906126a5565b610e1d6000611bf1565b565b6000806000806060610e3086611744565b610e4c5760405162461bcd60e51b81526004016106d79061262a565b6000868152600760209081526040808320815160a081018352815461ffff8116825260ff620100008204811695830195909552630100000081048516938201939093526401000000009092049092166060820152600182018054919291608084019190610eb8906125ef565b80601f0160208091040260200160405190810160405280929190818152602001828054610ee4906125ef565b8015610f315780601f10610f0657610100808354040283529160200191610f31565b820191906000526020600020905b815481529060010190602001808311610f1457829003601f168201915b5050509190925250508151602083015160408401516060850151608090950151929c919b5099509297509550909350505050565b6060600280546105ec906125ef565b6001600160a01b038216331415610fcd5760405162461bcd60e51b815260206004820152601960248201527f4552433732313a20617070726f766520746f2063616c6c65720000000000000060448201526064016106d7565b3360008181526006602090815260408083206001600160a01b03871680855290835292819020805460ff191686151590811790915590519081529192917f17307eab39ab6107e8899845ad3d59bd9653f200f220920489ca2b5937696c31910160405180910390a35050565b60008161ffff16600111156110905760405162461bcd60e51b815260206004820152601e60248201527f79656172206d75737420626520626967676572206f7220657175616c2031000060448201526064016106d7565b61109b600483612704565b61ffff161580156110b857506110b2606483612704565b61ffff16155b80156105d757506110cb61019083612704565b61ffff161592915050565b60606110e66108208585856117cf565b6111025760405162461bcd60e51b81526004016106d79061262a565b6000600760006111138787876117cf565b81526020808201929092526040908101600020815160a081018352815461ffff8116825260ff620100008204811695830195909552630100000081048516938201939093526401000000009092049092166060820152600182018054919291608084019190611181906125ef565b80601f01602080910402602001604051908101604052809291908181526020018280546111ad906125ef565b80156111fa5780601f106111cf576101008083540402835291602001916111fa565b820191906000526020600020905b8154815290600101906020018083116111dd57829003601f168201915b505050919092525050506080015195945050505050565b61121a82611744565b6112365760405162461bcd60e51b81526004016106d79061262a565b3361124083610ceb565b6001600160a01b0316146112af5760405162461bcd60e51b815260206004820152603060248201527f6f6e6c7920746865206f776e6572206f66207468697320646174652063616e2060448201526f6368616e676520697473207469746c6560801b60648201526084016106d7565b6000828152600760209081526040909120825161080d92600190920191840190611ffc565b6112de3383611857565b6112fa5760405162461bcd60e51b81526004016106d790612654565b61085584848484611c41565b606061131182611744565b6113755760405162461bcd60e51b815260206004820152602f60248201527f4552433732314d657461646174613a2055524920717565727920666f72206e6f60448201526e3732bc34b9ba32b73a103a37b5b2b760891b60648201526084016106d7565b600061137f611c74565b9050600081511161139f57604051806020016040528060008152506113ca565b806113a984611c83565b6040516020016113ba929190612725565b6040516020818303038152906040525b9392505050565b60606113dc82611744565b6113f85760405162461bcd60e51b81526004016106d79061262a565b6000828152600760209081526040808320815160a081018352815461ffff8116825260ff620100008204811695830195909552630100000081048516938201939093526401000000009092049092166060820152600182018054919291608084019190611464906125ef565b80601f0160208091040260200160405190810160405280929190818152602001828054611490906125ef565b80156114dd5780601f106114b2576101008083540402835291602001916114dd565b820191906000526020600020905b8154815290600101906020018083116114c057829003601f168201915b50505091909252505050608001519392505050565b6000808080611504620151808661276a565b61151190620afa6c61277e565b9050600061152262023ab18361276a565b905060006115338262023ab16127ad565b61153d9084612796565b9050600061016d61155162023ab08461276a565b61155d618eac8561276a565b6115696105b48661276a565b6115739086612796565b61157d919061277e565b6115879190612796565b611591919061276a565b905060006115a060648361276a565b6115ab60048461276a565b6115b78461016d6127ad565b6115c1919061277e565b6115cb9190612796565b6115d59084612796565b9050600060996115e68360056127ad565b6115f190600261277e565b6115fb919061276a565b9050600561160a8260996127ad565b61161590600261277e565b61161f919061276a565b6116299083612796565b61163490600161277e565b9650600a811061164e57611649600982612796565b611659565b61165981600361277e565b975060028860ff16111561166e576000611671565b60015b60ff16611680866101906127ad565b61168a908561277e565b611694919061277e565b98505050505050509193909250565b6000546001600160a01b031633146116cd5760405162461bcd60e51b81526004016106d7906126a5565b6001600160a01b0381166117325760405162461bcd60e51b815260206004820152602660248201527f4f776e61626c653a206e6577206f776e657220697320746865207a65726f206160448201526564647265737360d01b60648201526084016106d7565b61173b81611bf1565b50565b3b151590565b6000908152600360205260409020546001600160a01b0316151590565b600081815260056020526040902080546001600160a01b0319166001600160a01b038416908117909155819061179682610ceb565b6001600160a01b03167f8c5be1e5ebec7d5bd14f71427d1e84f3dd0314c0f7b2291e5b200ac8c7c3b92560405160405180910390a45050565b60008160ff166001111580156117f457506117ea83856108bf565b60ff168260ff1611155b6117fd57600080fd5b60018260ff1660018560ff166118139190612796565b61181e90601f6127ad565b61182d600161ffff8916612796565b611839906101746127ad565b611843919061277e565b61184d919061277e565b61089c9190612796565b600061186282611744565b6118c35760405162461bcd60e51b815260206004820152602c60248201527f4552433732313a206f70657261746f7220717565727920666f72206e6f6e657860448201526b34b9ba32b73a103a37b5b2b760a11b60648201526084016106d7565b60006118ce83610ceb565b9050806001600160a01b0316846001600160a01b031614806119095750836001600160a01b03166118fe8461066f565b6001600160a01b0316145b8061089c57506001600160a01b0380821660009081526006602090815260408083209388168352929052205460ff1661089c565b826001600160a01b031661195082610ceb565b6001600160a01b0316146119b85760405162461bcd60e51b815260206004820152602960248201527f4552433732313a207472616e73666572206f6620746f6b656e2074686174206960448201526839903737ba1037bbb760b91b60648201526084016106d7565b6001600160a01b038216611a1a5760405162461bcd60e51b8152602060048201526024808201527f4552433732313a207472616e7366657220746f20746865207a65726f206164646044820152637265737360e01b60648201526084016106d7565b611a25600082611761565b6001600160a01b0383166000908152600460205260408120805460019290611a4e908490612796565b90915550506001600160a01b0382166000908152600460205260408120805460019290611a7c90849061277e565b909155505060008181526003602052604080822080546001600160a01b0319166001600160a01b0386811691821790925591518493918716917fddf252ad1be2c89b69c2b068fc378daa952ba7f163c4a11628f55a4df523b3ef91a4505050565b6000424486868686604051602001611afa969594939291906127cc565b60408051601f19818403018152919052805160209091012095945050505050565b6000611b288686866117cf565b6040805160a08101825261ffff808a16825260ff808a1660208085019182528a83168587019081528a841660608701908152608087018b815260008a815260078552989098208751815495519351925187166401000000000264ff00000000199388166301000000029390931664ffff0000001994909716620100000262ffffff199096169716969096179390931716929092171782559251805194955091939092611bdb926001850192910190611ffc565b50905050611be93382611d81565b505050505050565b600080546001600160a01b038381166001600160a01b0319831681178455604051919092169283917f8be0079c531659141344cd1fd0a4f28419497f9722a3daafe3b4186f6b6457e09190a35050565b611c4c84848461193d565b611c5884848484611d9b565b6108555760405162461bcd60e51b81526004016106d790612813565b6060600880546105ec906125ef565b606081611ca75750506040805180820190915260018152600360fc1b602082015290565b8160005b8115611cd15780611cbb81612865565b9150611cca9050600a8361276a565b9150611cab565b60008167ffffffffffffffff811115611cec57611cec6121b5565b6040519080825280601f01601f191660200182016040528015611d16576020820181803683370190505b5090505b841561089c57611d2b600183612796565b9150611d38600a866126f0565b611d4390603061277e565b60f81b818381518110611d5857611d58612880565b60200101906001600160f81b031916908160001a905350611d7a600a8661276a565b9450611d1a565b610a52828260405180602001604052806000815250611e96565b60006001600160a01b0384163b15611e8e57604051630a85bd0160e11b81526001600160a01b0385169063150b7a0290611ddf903390899088908890600401612896565b6020604051808303816000875af1925050508015611e1a575060408051601f3d908101601f19168201909252611e17918101906128d3565b60015b611e74573d808015611e48576040519150601f19603f3d011682016040523d82523d6000602084013e611e4d565b606091505b508051611e6c5760405162461bcd60e51b81526004016106d790612813565b805181602001fd5b6001600160e01b031916630a85bd0160e11b14905061089c565b50600161089c565b611ea08383611ec9565b611ead6000848484611d9b565b61080d5760405162461bcd60e51b81526004016106d790612813565b6001600160a01b038216611f1f5760405162461bcd60e51b815260206004820181905260248201527f4552433732313a206d696e7420746f20746865207a65726f206164647265737360448201526064016106d7565b611f2881611744565b15611f755760405162461bcd60e51b815260206004820152601c60248201527f4552433732313a20746f6b656e20616c7265616479206d696e7465640000000060448201526064016106d7565b6001600160a01b0382166000908152600460205260408120805460019290611f9e90849061277e565b909155505060008181526003602052604080822080546001600160a01b0319166001600160a01b03861690811790915590518392907fddf252ad1be2c89b69c2b068fc378daa952ba7f163c4a11628f55a4df523b3ef908290a45050565b828054612008906125ef565b90600052602060002090601f01602090048101928261202a5760008555612070565b82601f1061204357805160ff1916838001178555612070565b82800160010185558215612070579182015b82811115612070578251825591602001919060010190612055565b5061207c929150612080565b5090565b5b8082111561207c5760008155600101612081565b6001600160e01b03198116811461173b57600080fd5b6000602082840312156120bd57600080fd5b81356113ca81612095565b60005b838110156120e35781810151838201526020016120cb565b838111156108555750506000910152565b6000815180845261210c8160208601602086016120c8565b601f01601f19169290920160200192915050565b6020815260006113ca60208301846120f4565b60006020828403121561214557600080fd5b5035919050565b80356001600160a01b038116811461216357600080fd5b919050565b6000806040838503121561217b57600080fd5b6121848361214c565b946020939093013593505050565b803561ffff8116811461216357600080fd5b803560ff8116811461216357600080fd5b634e487b7160e01b600052604160045260246000fd5b600067ffffffffffffffff808411156121e6576121e66121b5565b604051601f8501601f19908116603f0116810190828211818310171561220e5761220e6121b5565b8160405280935085815286868601111561222757600080fd5b858560208301376000602087830101525050509392505050565b600082601f83011261225257600080fd5b6113ca838335602085016121cb565b6000806000806080858703121561227757600080fd5b61228085612192565b935061228e602086016121a4565b925061229c604086016121a4565b9150606085013567ffffffffffffffff8111156122b857600080fd5b6122c487828801612241565b91505092959194509250565b6000806000606084860312156122e557600080fd5b6122ee8461214c565b92506122fc6020850161214c565b9150604084013590509250925092565b60008060006060848603121561232157600080fd5b61232a84612192565b9250612338602085016121a4565b9150612346604085016121a4565b90509250925092565b6000806040838503121561236257600080fd5b61236b836121a4565b915061237960208401612192565b90509250929050565b60006020828403121561239457600080fd5b813567ffffffffffffffff8111156123ab57600080fd5b61089c84828501612241565b6000806000806000608086880312156123cf57600080fd5b6123d886612192565b94506123e6602087016121a4565b93506123f4604087016121a4565b9250606086013567ffffffffffffffff8082111561241157600080fd5b818801915088601f83011261242557600080fd5b81358181111561243457600080fd5b89602082850101111561244657600080fd5b9699959850939650602001949392505050565b60006020828403121561246b57600080fd5b6113ca8261214c565b61ffff8616815260ff8516602082015260ff8416604082015260ff8316606082015260a0608082015260006124ac60a08301846120f4565b979650505050505050565b600080604083850312156124ca57600080fd5b6124d38361214c565b9150602083013580151581146124e857600080fd5b809150509250929050565b60006020828403121561250557600080fd5b6113ca82612192565b6000806040838503121561252157600080fd5b82359150602083013567ffffffffffffffff81111561253f57600080fd5b61254b85828601612241565b9150509250929050565b6000806000806080858703121561256b57600080fd5b6125748561214c565b93506125826020860161214c565b925060408501359150606085013567ffffffffffffffff8111156125a557600080fd5b8501601f810187136125b657600080fd5b6122c4878235602084016121cb565b600080604083850312156125d857600080fd5b6125e18361214c565b91506123796020840161214c565b600181811c9082168061260357607f821691505b6020821081141561262457634e487b7160e01b600052602260045260246000fd5b50919050565b60208082526010908201526f1d1bdad95b881b9bdd081b5a5b9d195960821b604082015260600190565b60208082526031908201527f4552433732313a207472616e736665722063616c6c6572206973206e6f74206f6040820152701ddb995c881b9bdc88185c1c1c9bdd9959607a1b606082015260800190565b6020808252818101527f4f776e61626c653a2063616c6c6572206973206e6f7420746865206f776e6572604082015260600190565b634e487b7160e01b600052601260045260246000fd5b6000826126ff576126ff6126da565b500690565b600061ffff80841680612719576127196126da565b92169190910692915050565b600083516127378184602088016120c8565b83519083019061274b8183602088016120c8565b01949350505050565b634e487b7160e01b600052601160045260246000fd5b600082612779576127796126da565b500490565b6000821982111561279157612791612754565b500190565b6000828210156127a8576127a8612754565b500390565b60008160001904831182151516156127c7576127c7612754565b500290565b86815285602082015261ffff8516604082015260ff8416606082015260ff8316608082015260c060a0820152600061280760c08301846120f4565b98975050505050505050565b60208082526032908201527f4552433732313a207472616e7366657220746f206e6f6e20455243373231526560408201527131b2b4bb32b91034b6b83632b6b2b73a32b960711b606082015260800190565b600060001982141561287957612879612754565b5060010190565b634e487b7160e01b600052603260045260246000fd5b6001600160a01b03858116825284166020820152604081018390526080606082018190526000906128c9908301846120f4565b9695505050505050565b6000602082840312156128e557600080fd5b81516113ca8161209556fea2646970667358221220bebf50d1b0d7179245e9f1a590c20f448a54f4a089fb28ac47935285a7ebe04164736f6c634300080a00334552433732313a207472616e7366657220746f206e6f6e204552433732315265576527766520666f756e64206f7572206e65787420686f6d652c204b65706c65722d323262",
  "immutableReferences": {},
  "source": "// SPDX-License-Identifier: MIT\npragma solidity >=0.4.22 <0.9.0;\n\nimport \"@openzeppelin/contracts/access/Ownable.sol\";\nimport \"@openzeppelin/contracts/token/ERC721/ERC721.sol\";\n\ncontract Date is Ownable, ERC721 {\n\n    struct Metadata {\n        uint16 year;\n        uint8 month;\n        uint8 day;\n        uint8 color;\n        string title;\n    }\n\n    mapping(uint256 => Metadata) id_to_date;\n\n    string private _currentBaseURI;\n\n    constructor() ERC721(\"Date\", \"DATE\") {\n        setBaseURI(\"https://date.kie.codes/token/\");\n\n        mint(1, 1, 1, 4, \"ORIGIN\");\n        (uint16 now_year, uint8 now_month, uint8 now_day) = timestampToDate(block.timestamp);\n        mint(now_year, now_month, now_day, 4, \"Date Token Start\");\n        mint(2015, 7, 30, 6, \"ETH GENESIS\");\n        mint(2000, 1, 1, 5, \"The new century\");\n        mint(2009, 1, 3, 1, \"Bitcoin was born.\");\n        mint(2001, 9, 11, 2, \"Never forget\");\n        mint(1969, 7, 20, 3, \"One small step for man\");\n        mint(1971, 6, 28, 7, \"Elon's Birthday\");\n        mint(2011, 12, 5, 0, \"We've found our next home, Kepler-22b\");\n    }\n\n    function setBaseURI(string memory baseURI) public onlyOwner {\n        _currentBaseURI = baseURI;\n    }\n\n    function _baseURI() internal override view virtual returns (string memory) {\n        return _currentBaseURI;\n    }\n\n    function mint(uint16 year, uint8 month, uint8 day, uint8 color, string memory title) internal {\n        uint256 tokenId = id(year, month, day);\n        \n        id_to_date[tokenId] = Metadata(year, month, day, color, title);\n        _safeMint(msg.sender, tokenId);\n    }\n\n    function claim(uint16 year, uint8 month, uint8 day, string calldata title) external payable {\n        require(msg.value == 0.01 ether, \"claiming a date costs 10 finney\");\n\n        (uint16 now_year, uint8 now_month, uint8 now_day) = timestampToDate(block.timestamp);\n        if ((year > now_year) || \n            (year == now_year && month > now_month) || \n            (year == now_year && month == now_month && day > now_day)) {\n            revert(\"a date from the future can't be claimed\");\n        }\n\n        uint8 color;\n        uint256 r = pseudoRNG(year, month, day, title) % 1000000;\n        if (r < 1000) {\n            color = 7;\n        } else if (r < 6000) {\n            color = 6;\n        } else if (r < 16000) {\n            color = 5;\n        } else if (r < 66000) {\n            color = 4;\n        } else if (r < 166000) {\n            color = 3;\n        } else if (r < 366000) {\n            color = 2;\n        } else if (r < 666000) {\n            color = 1;\n        } else {\n            color = 0;\n        }\n\n        mint(year, month, day, color, title);\n        payable(owner()).transfer(0.01 ether);\n    }\n\n    function ownerOf(uint16 year, uint8 month, uint8 day) public view returns(address) {\n        return ownerOf(id(year, month, day));\n    }\n\n    function id(uint16 year, uint8 month, uint8 day) pure internal returns(uint256) {\n        require(1 <= day && day <= numDaysInMonth(month, year));\n        return (uint256(year)-1)*372 + (uint256(month)-1)*31 + uint256(day)-1;\n    }\n\n    function get(uint256 tokenId) external view returns (uint16 year, uint8 month, uint8 day, uint8 color, string memory title) {\n        require(_exists(tokenId), \"token not minted\");\n        Metadata memory date = id_to_date[tokenId];\n        year = date.year;\n        month = date.month;\n        day = date.day;\n        color = date.color;\n        title = date.title;\n    }\n\n    function titleOf(uint256 tokenId) external view returns (string memory) {\n        require(_exists(tokenId), \"token not minted\");\n        Metadata memory date = id_to_date[tokenId];\n        return date.title;\n    }\n\n    function titleOf(uint16 year, uint8 month, uint8 day) external view returns (string memory) {\n        require(_exists(id(year, month, day)), \"token not minted\");\n        Metadata memory date = id_to_date[id(year, month, day)];\n        return date.title;\n    }\n\n    function changeTitleOf(uint16 year, uint8 month, uint8 day, string memory title) external {\n        require(_exists(id(year, month, day)), \"token not minted\");\n        changeTitleOf(id(year, month, day), title);\n    }\n\n    function changeTitleOf(uint256 tokenId, string memory title) public {\n        require(_exists(tokenId), \"token not minted\");\n        require(ownerOf(tokenId) == msg.sender, \"only the owner of this date can change its title\");\n        id_to_date[tokenId].title = title;\n    }\n\n    function isLeapYear(uint16 year) public pure returns (bool) {\n        require(1 <= year, \"year must be bigger or equal 1\");\n        return (year % 4 == 0) \n            && (year % 100 == 0)\n            && (year % 400 == 0);\n    }\n\n    function numDaysInMonth(uint8 month, uint16 year) public pure returns (uint8) {\n        require(1 <= month && month <= 12, \"month must be between 1 and 12\");\n        require(1 <= year, \"year must be bigger or equal 1\");\n\n        if (month == 1 || month == 3 || month == 5 || month == 7 || month == 8 || month == 10 || month == 12) {\n            return 31;\n        }\n        else if (month == 2) {\n            return isLeapYear(year) ? 29 : 28;\n        }\n        else {\n            return 30;\n        }\n    }\n\n    function timestampToDate(uint timestamp) public pure returns (uint16 year, uint8 month, uint8 day) {\n        uint z = timestamp / 86400 + 719468;\n        uint era = (z >= 0 ? z : z - 146096) / 146097;\n        uint doe = z - era * 146097;\n        uint yoe = (doe - doe/1460 + doe/36524 - doe/146096) / 365;\n        uint doy = doe - (365*yoe + yoe/4 - yoe/100);\n        uint mp = (5*doy + 2)/153;\n\n        day = uint8(doy - (153*mp+2)/5 + 1);\n        month = mp < 10 ? uint8(mp + 3) : uint8(mp - 9);\n        year = uint16(yoe + era * 400 + (month <= 2 ? 1 : 0));\n    }\n\n    function pseudoRNG(uint16 year, uint8 month, uint8 day, string memory title) internal view returns (uint256) {\n        return uint256(keccak256(abi.encode(block.timestamp, block.difficulty, year, month, day, title)));\n    }\n    \n    \n    function concatenate(string calldata a,string calldata b) internal pure returns(string memory) {\n        return string(abi.encodePacked(a, b));\n    }\n}",
  "sourcePath": "E:\\WORK\\Crypto\\NFTs\\opensea\\nft\\contracts\\Date.sol",
  "compiler": {
    "name": "solc",
    "version": "0.8.10+commit.fc410830.Emscripten.clang"
  },
  "schemaVersion": "3.4.3",
  "updatedAt": "2021-11-11T14:11:10.961Z",
  "devdoc": {
    "kind": "dev",
    "methods": {
      "approve(address,uint256)": {
        "details": "See {IERC721-approve}."
      },
      "balanceOf(address)": {
        "details": "See {IERC721-balanceOf}."
      },
      "getApproved(uint256)": {
        "details": "See {IERC721-getApproved}."
      },
      "isApprovedForAll(address,address)": {
        "details": "See {IERC721-isApprovedForAll}."
      },
      "name()": {
        "details": "See {IERC721Metadata-name}."
      },
      "owner()": {
        "details": "Returns the address of the current owner."
      },
      "ownerOf(uint256)": {
        "details": "See {IERC721-ownerOf}."
      },
      "renounceOwnership()": {
        "details": "Leaves the contract without owner. It will not be possible to call `onlyOwner` functions anymore. Can only be called by the current owner. NOTE: Renouncing ownership will leave the contract without an owner, thereby removing any functionality that is only available to the owner."
      },
      "safeTransferFrom(address,address,uint256)": {
        "details": "See {IERC721-safeTransferFrom}."
      },
      "safeTransferFrom(address,address,uint256,bytes)": {
        "details": "See {IERC721-safeTransferFrom}."
      },
      "setApprovalForAll(address,bool)": {
        "details": "See {IERC721-setApprovalForAll}."
      },
      "supportsInterface(bytes4)": {
        "details": "See {IERC165-supportsInterface}."
      },
      "symbol()": {
        "details": "See {IERC721Metadata-symbol}."
      },
      "tokenURI(uint256)": {
        "details": "See {IERC721Metadata-tokenURI}."
      },
      "transferFrom(address,address,uint256)": {
        "details": "See {IERC721-transferFrom}."
      },
      "transferOwnership(address)": {
        "details": "Transfers ownership of the contract to a new account (`newOwner`). Can only be called by the current owner."
      }
    },
    "version": 1
  },
  "userdoc": {
    "kind": "user",
    "methods": {},
    "version": 1
  }
}